:100000000C94CD040C94EA040C94EA040C94EA04D5
:100010000C94EA040C94EA040C94EA040C94282747
:100020000C94EA040C94EA040C94EA040C94EF2C6B
:100030000C94EA040C94EA040C94CE2B0C94EA047D
:100040000C94EA040C94EA040C94292E0C94EA040F
:100050000C94EA040C94EA040C94EA040C94EA0468
:100060000C94EA040C94EA04626174746572793D3C
:10007000256425253B00655F706F7765723D2575AA
:100080003B007369676E616C5F67736D3D25642526
:10009000253B00673D2568753B00675F723D257510
:1000A0003B006D63753D25753B0074656D703D25A6
:1000B00064433B006C5F673D25643B00677561727C
:1000C000643D25643B00743D257564257568257580
:1000D0006D2575733B006465706F7369743D25739E
:1000E0003B00312D57697265206465766963652030
:1000F00064657465637465642E004572726F722165
:1001000021212043616E206E6F742066696E642029
:10011000312D576972652064657669636521002B0E
:10012000333830373133333138303930006565702A
:10013000726F6D5F66697273745F736574002B43D1
:100140005553443A300023222C31350D0A004154D6
:100150002B435553443D312C220065727200446597
:10016000706F736974203C20313020525542006515
:10017000727200657272002B435553443A007573D6
:1001800073642073656E64206F6B0041542B43557C
:1001900053443D312C222A31303123220D0A0041B3
:1001A000542B444445543D312C35302C302C310DEA
:1001B0000A0041542B43504D533D22534D222C22D3
:1001C000534D222C22534D220D0A0041542B434CF7
:1001D00049503D310D0A0041542B434E4D493D32AB
:1001E0002C312C302C312C300D0A0041542B434D36
:1001F00047463D310D0A00415445300D0A00415437
:100200000D0A004154410D0A0041542B434D47440F
:10021000413D2244454C20414C4C220D0A004154A2
:100220002B434D47443D25640D0A0041542B434D5B
:10023000474C3D2252454320554E52454144220DE4
:100240000A002B44544D463A002B434C49503A0087
:100250002B434D54493A0041542B434D47533D22C3
:100260002573220D0A0041542B434D47573D22254B
:1002700073220D0A004552524F520041542B434DF8
:1002800047533D222573220D0A0041542B434D470D
:10029000443D25640D0A0041542B434D53533D25E5
:1002A000640D0A0041542B434D474C3D2253544F9B
:1002B00020554E53454E54220D0A002B43524547BC
:1002C0003A0041542B435245473F0D0A002B43420D
:1002D000433A0041542B4342430D0A0041542B43FF
:1002E00053510D004154480D0A002B434C43433AEF
:1002F0000041542B434C43430D0A0077616974203D
:100300007374722074696D6520656E64000D0A0057
:100310002E616D72222C302C3130302C0041542B48
:10032000435245433D342C22433A5C557365725C1D
:100330000041542B435245433D350D0A004552526E
:100340004F5200636D642074696D6520656E6400B2
:10035000416C61726D2120434F55525459415244B2
:100360002100416C61726D2120496E7465726E616D
:100370006C2054454D5045524154555245203E2025
:100380003635432021212100416C61726D212054BA
:10039000454D504552415455524521212100416C53
:1003A00061726D2120534D4F4B4521212100414C5D
:1003B00041524D21204D6F74696F6E2120436F6F44
:1003C0006B726F6F6D00414C41524D2120496E762A
:1003D0006173696F6E212047617264656E00414CE4
:1003E00041524D21204D6F74696F6E212046726F0E
:1003F0006E740041544425733B0D0A00656E642001
:100400006D61696E0073657475705F6F6B0D0A00C6
:1004100053746172742E2E2E0D0A006D74696D6511
:100420005F73656E735F6D733D25753B006D746919
:100430006D655F73656E735F6D733B0061636365CC
:1004400070745F736D733D25643B00616363657019
:10045000745F736D733B006163636570745F6361A8
:100460006C6C733D25643B006163636570745F630E
:10047000616C6C733B006175746F67756172643D8C
:1004800025643B006175746F67756172643B006938
:100490006E74657276616C5F61667465725F6D6FB4
:1004A00074696F6E5F683D2575683B0061667465B1
:1004B000726D6F74696F6E3B00696E746572766100
:1004C0006C5F61667465725F627574746F6E5F6D88
:1004D0003D25756D3B0062746E696E746572766160
:1004E0006C3B003B0025732C0061646D696E706885
:1004F0006F6E65733D0061646D696E70686F6E65E7
:10050000733B006D74696D655F73656E735F6D73CA
:100510003D00735F73656E736F723D00706F77653A
:10052000725F6F6E5F7265706F72745F6D3D0070A9
:100530006F7765725F6F66665F7265706F72745F0A
:100540006D3D006163636570745F736D733D006141
:1005500063636570745F63616C6C733D0061757497
:100560006F67756172643D006C6F63616C5F677586
:100570006172643D0067756172643D0070617573FE
:10058000655F616C61726D5F733D00616674657279
:100590006D6F74696F6E3D0062746E696E74657222
:1005A00076616C3D006C696768743D00416363650A
:1005B00073732064656E696564004F6B0061646DE0
:1005C000696E70686F6E65733D0041636365737338
:1005D0002064656E696564007265706F72743B00BB
:1005E0004163636573732064656E69656400686563
:1005F0006C707365743B004163636573732064655D
:100600006E6965640068656C706765743B00416382
:10061000636573732064656E6965640068656C70FA
:100620003B00526573657420636F6D6D616E64206D
:1006300061636365707465642E0041636365737301
:100640002064656E696564007265626F6F743B005B
:1006500044657669636520726573657420646566B8
:1006600061756C742C2073656E642061646D696EB5
:1006700070686F6E65733D4E554D4245525F5048F0
:100680004F4E4553004163636573732064656E6923
:10069000656400726573657464656661756C743B4E
:1006A000006572726F7200416363657373206465E5
:1006B0006E696564006765743A006572726F7200F6
:1006C0006F6B004163636573732064656E69656475
:1006D000007365743A007365743A62746E696E747F
:1006E000657276616C3D3B61667465726D6F7469AD
:1006F0006F6E3D3B6163636570745F63616C6C73C7
:100700003D3B766F6963653D3B67756172643D3B58
:100710006C6F63616C5F67756172643D3B6175749A
:100720006F67756172643D3B6D74696D655F73657C
:100730006E735F6D733D3B6D70617573655F6D7357
:100740003D3B70617573655F616C61726D5F733D98
:100750003B7265706F72745F706F7765723D0000F9
:100760000000000000000000000000000000000089
:10077000000000000000006765743A61646D696EF6
:1007800070686F6E65733B6163636570745F63610E
:100790006C6C733B62746E696E74657276616C3BEF
:1007A00061667465726D6F74696F6E3B6175746FAD
:1007B00067756172643B6D74696D655F73656E73B7
:1007C0005F6D733B6D70617573655F6D733B7265D3
:1007D000706F72745F706F776572000000000000C8
:1007E0000000000000000000000000000000000009
:1007F00000000000000000000000000000000000F9
:1008000000000000000000000000000000000000E8
:10081000000000000000000068656C707365743BA8
:1008200068656C706765743B7265706F72743B616C
:10083000646D696E70686F6E65733B7265626F6F31
:10084000743B726573657464656661756C743B7046
:1008500061795F636F64653D3B6C696768743D3BBC
:100860000000000000000000000000000000000088
:100870000000000000000000000000000000000078
:100880000000000000000000000000000000000068
:100890000000000000000000000000000000000058
:1008A0000000000000000000000000000000000048
:1008B000000000000000000000496E7465726E6563
:1008C00074204F4B004E6F20496E7465726E6574D4
:1008D000003B257500743D256C7500626D3D2575E6
:1008E00026006D693D257526007A3D257526006C2C
:1008F0003D25752600733D25752600623D2575262C
:1009000000623D25752600723D25752600736967D6
:100910003D257526006D3D2575260074653D2564D1
:10092000260074693D256426006C673D2575260008
:10093000673D25752600643D257326002A31300069
:1009400070696E67310070696E6730007265626F42
:100950006F745F67736D007265626F6F745F616C57
:100960006C00757373640062757A3D310062757A4C
:100970003D30006C5F673D30006C5F673D31006D5E
:100980005F673D30006D5F673D31006C616D703DAC
:1009900030006C616D703D31000011241FBECFEF3F
:1009A000D8E0DEBFCDBF13E0A0E0B1E0E8E4FFE6B1
:1009B00002C005900D92A830B107D9F726E0A8E053
:1009C000B3E001C01D92A53BB207E1F70E94C21F30
:1009D0000C9483370C94000010920803EAE7F0E0CF
:1009E0009081906890839081987F9083803109F402
:1009F00043C0B0F48430D1F148F0883009F048C0E9
:100A0000EAE7F0E080818360808321C08823D1F011
:100A10008230F1F5EAE7F0E080818160808317C0E1
:100A2000803481F1803831F4EAE7F0E0808187603A
:100A300080830DC0803261F5EAE7F0E08081856057
:100A4000808305C0EAE7F0E08081816080836A30BE
:100A500029F16B3071F16C30A9F1ECE7F0E08081A5
:100A60008F7780838081806480831DC0EAE7F0E017
:100A7000808182608083EBCFEAE7F0E08081846050
:100A80008083E5CFEAE7F0E0808186608083DFCF76
:100A9000EAE7F0E0808187608083D9CFECE7F0E07F
:100AA00080818F738083ECE7F0E080818F7D80838D
:100AB0000895ECE7F0E080818F7780838081806407
:100AC0008083F1CFECE7F0E0808180648083EBCF1E
:100AD000EAE7F0E0908190689083ECE7F0E09081A5
:100AE000907F9083893008F04DC0E82FF0E0EB57FD
:100AF000F84C0C946C2FECE7F0E08081807F8083D1
:100B0000EAE7F0E0808180648083808184FFFDCF0C
:100B1000EAE7F0E080818F77808380917800909180
:100B200079000895ECE7F0E0808181608083E8CF70
:100B3000ECE7F0E0808182608083E2CFECE7F0E0D8
:100B4000808183608083DCCFECE7F0E0808184608B
:100B50008083D6CFECE7F0E0808185608083D0CFC2
:100B6000ECE7F0E0808186608083CACFECE7F0E0BC
:100B7000808187608083C4CFECE7F0E0808188606B
:100B80008083BECFECE7F0E08081807F8083B8CFA8
:100B9000CF92DF92FF920F931F93CF93DF93F82EA4
:100BA0000E946805C82FD92F0F2EF8E1CF2EF3E051
:100BB000DF2EF02DF601D183C0838F2D0E946805B2
:100BC000082F192FF601138302838F2D0E946805C9
:100BD000282F392FF601358324830C171D07C8F001
:100BE0002C173D0730F0C8012817390750F4C90108
:100BF00008C0C017D10769F0CE010C171D0708F413
:100C0000C801DF91CF911F910F91FF90DF90CF909E
:100C100008952017310780F3CE012C173D0788F780
:100C2000C901EFCF88E00E94C8058054089586E08E
:100C30000E94C80589359240A0F480911E039091CE
:100C40001F03A0912003B09121030196A11DB11DA6
:100C500080931E0390931F03A0932003B09321035E
:100C6000089580E090E0DC01F3CFCF92DF92EF9225
:100C7000FF92CF93DF9300D000D0CDB7DEB70E94B4
:100C8000092C69837A838B839C83809114039091D0
:100C90001503A0911603B091170329813A814B8166
:100CA0005C81281B390B4A0B5B0BDA01C901883EBA
:100CB0009340A105B105D8F480911E0390911F03C4
:100CC000A0912003B0912103892B8A2B8B2BE1F07B
:100CD0000E949610811169C00F900F900F900F9095
:100CE000DF91CF91FF90EF90DF90CF9008950E9419
:100CF000092C60931403709315038093160390934B
:100D000017030E941706D8CF0E949C10882321F356
:100D100080911303882369F080910101882381F079
:100D200080910E038130C1F6809101018130A1F6DE
:100D300016C081E0809313038AE00E94A82CECCFB8
:100D40000E94292C60930F0370931003809311036A
:100D50009093120381E08093010180930E030E941F
:100D60009C10282F30E0ACE3B0E00E947A2FC090B6
:100D70000F03D0901003E0901103F0901203C60E01
:100D8000D71EE81EF91E0E94292CC616D706E806B3
:100D9000F90608F0A1CF10920E0381E080930001C4
:100DA0008CE092E00E94AC1797CF2FB7F894809117
:100DB0001E0390911F03A0912003B09121032FBF28
:100DC00080930A0390930B03A0930C03B0930D033D
:100DD0000E94292C60930F037093100380931103DA
:100DE0009093120380911303813051F080910001A0
:100DF000813049F080910903813009F06DCF20C026
:100E000010921303F3CF0E949610282F30E0ACE32A
:100E1000B0E00E947A2F69837A838B839C838091D0
:100E20000A0390910B03A0910C03B0910D0329814B
:100E30003A814B815C81281739074A075B07D0F656
:100E400010920903109201011092000182E292E0D7
:100E50000E94AC1741CFCF93DF9300D000D0CDB725
:100E6000DEB78FB7F89420911E0330911F03409195
:100E700020035091210329833A834B835C838FBFE6
:100E800069817A818B819C810F900F900F900F90D8
:100E9000DF91CF910895E0914203EE23A9F0E09312
:100EA0004003E150E73048F4F0E0E257F84C0C948E
:100EB0006C2F89E392E00E946C171092420380E04D
:100EC0000E94A5100E94ED2C089581E492E00E94FA
:100ED0006C17F3CF88E492E00E946C17EECF8EE49B
:100EE00092E00E946C17E9CF85E592E00E946C17B2
:100EF000E4CF8AE592E00E946C17DFCF8AE592E0AA
:100F00000E946C17DACFCF92DF92EF92FF92CF93CD
:100F1000DF9300D000D000D0CDB7DEB70E94A21082
:100F2000882309F4FCC00E94B7208D830E94C91059
:100F30008E832D81222321F0809142038823E9F0C2
:100F400080913B03813009F4A9C08091360381115F
:100F5000C2C00E944B070E94A210882309F437C226
:100F600026960FB6F894DEBF0FBECDBFDF91CF91AE
:100F7000FF90EF90DF90CF9008950E94C3108111F1
:100F800021C080913B038823B1F18130D9F40E94C4
:100F9000092C69837A838B839C838091370390919A
:100FA0003803A0913903B0913A0388519C4FAF4F59
:100FB000BF4F29813A814B815C81281739074A0745
:100FC0005B0738F210923B0380E00E94CC2D81E059
:100FD0008093360380E69AEE0E94E02C3D8130FF3C
:100FE00023C04E814037A9F080EE0E94CC1083E0F0
:100FF00080934203A5CF0E94092C6093370370931E
:1010000038038093390390933A0381E080933B0344
:10101000A0CF80EF0E94CC1080E00E94A5100E941B
:10102000811010923603E3CF5D8151FF15C08E8190
:10103000803739F080ED0E94CC1081E0809342032C
:101040007FCF80EF0E94CC1080E00E94A5100E940C
:10105000811010923603F1CF9D8192FF15C0AE81B1
:10106000A03739F080EB0E94CC1082E080934203DD
:1010700067CF80EF0E94CC1080E00E94A5101092F4
:1010800036030E948110F1CFBD81B3FF59CF80E7B5
:101090000E94CC1084E08093420352CF0E94092C1E
:1010A000C62ED72EE82EF92E0E94CF10409137037E
:1010B000509138036091390370913A03480F591FDA
:1010C000611D711D4C155D056E057F0508F03DCF56
:1010D00010923B033ECF0E94DB2DC62ED72EE82E6A
:1010E000F92E0E94D9109C01A0E1BEE00E947A2F47
:1010F0006C157D058E059F0508F02BCF10923603E9
:1011000080EF0E94CC10109240030E949310813017
:1011100009F01FCF80E692E00E94AC171ACF0E9420
:10112000A810882309F417CF0E94B7208D83882345
:1011300021F080914203882391F080913503813022
:1011400009F46FC080913C03813009F489C00E948A
:101150000511813009F493C00E944B07FCCE0E9418
:10116000C310811130C0809135038823F1F08130A4
:1011700061F50E94092C69837A838B839C8380911B
:10118000310390913203A0913303B091340388511D
:101190009C4FAF4FBF4F29813A814B815C8128170B
:1011A00039074A075B0788F4D2CF0E94092C609365
:1011B000310370933203809333039093340381E0BF
:1011C00080933503C4CF1092350380E00E94CC2D6C
:1011D0008D81867031F081E080933C03109235035D
:1011E000B1CF80913C038111A8CF80E197E20E94AA
:1011F000E02C81E080933C033D8130FF05C083E01B
:101200008093420380933C034D8143FF96CF84E05B
:101210008093420380933C0380913503813009F031
:1012200096CF0E94092C69837A838B839C8380915B
:10123000310390913203A0913303B0913403885A63
:10124000944EAF4FBF4F29813A814B815C81821709
:101250009307A407B50708F075CF1092350377CF31
:101260000E94DB2D693572408105910508F46FCF2E
:101270000E94C42B10923C031092400368CF0E943E
:101280007920882321F080914203882399F180916D
:101290003003813009F45FC080912B03882309F467
:1012A0005BCF0E94092C69837A838B839C83809116
:1012B0002C0390912D03A0912E03B0912F03805207
:1012C0009C46AB4FBF4F29813A814B815C8182178D
:1012D0009307A407B50708F03FCF10922B030E9495
:1012E000C42B88EC90E00E94712C0E94C42B1092B9
:1012F000400332CF0E94C31081115AC08091300345
:10130000882309F447C0813009F054C00E94092C99
:1013100069837A838B839C8380912C0390912D0326
:10132000A0912E03B0912F038C5C974FAF4FBF4F0E
:1013300029813A814B815C81281739074A075B076D
:1013400008F40ACF80912B038823C1F180913003E8
:10135000813009F0A6CF0E94092C69837A838B83A0
:101360009C8380912C0390912D03A0912E03B0912A
:101370002F03805F984DAF4FBF4F29813A814B813A
:101380005C8182179307A407B50708F085CF1092F8
:10139000300382CF0E94092C60932C0370932D039D
:1013A00080932E0390932F0381E080933003D4CE5B
:1013B0001092300380912B03811173CF81E08093D1
:1013C0002B030E94C42B88E08093420360CF0E94CD
:1013D0000B2E89839A830E94E31081111CC04981DE
:1013E0005A814F3F5F4F19F40E94E910B9CD81E057
:1013F0000E94E6100E9481100E94E9104CE3489F71
:101400009001499F300D1124A981BA812A173B0709
:1014100008F0A6CD12C00E94E9104CE3489F90014D
:10142000499F300D112449815A812417350708F04E
:1014300097CD4F3F5F4F09F493CD81E00E94A510F7
:1014400080E00E94AB100E9481108FEF9FEF0E94FE
:10145000032E0E94C42B84E690E00E94712C0E940F
:10146000C42B0E948D10813051F00E949310813066
:1014700009F076CD8DE892E00E94AC1771CD86E838
:1014800092E00E946C17F1CFCF93DF9300D000D091
:10149000CDB7DEB780912A038130D1F00E94292C8C
:1014A00069837A838B839C838091260390912703A1
:1014B000A0912803B0912903CC96A11DB11D2981CB
:1014C0003A814B815C8182179307A407B50738F0F6
:1014D0000F900F900F900F90DF91CF9108950E9481
:1014E000292C6093260370932703809328039093FD
:1014F00029030E94280E80933E030E9412068093C7
:101500003D0390913E0392344CF482340CF381E01D
:1015100080932A0386E080934203DACF91E0909390
:101520002A0395E090934203F0CF809342030895FD
:101530009FB7F894809142039FBF0895CF93DF93A4
:1015400000D0CDB7DEB76091AF067091B0066115DF
:10155000710549F0CE0101960E94F72E0F900F9071
:10156000DF91CF91089565EB76E0F4CFCF93DF93D1
:10157000CDB7DEB72A970FB6F894DEBF0FBECDBF4A
:101580000E949E0A4AE0BE016F5F7F4F0E943B347B
:10159000CE0101960E9431282A960FB6F894DEBF3C
:1015A0000FBECDBFDF91CF910895CF93DF9300D0D1
:1015B00000D0CDB7DEB780914103882321F0813080
:1015C00049F08230D1F00F900F900F900F90DF9183
:1015D000CF91089582E0809341030E94492CDC0161
:1015E000CB010A96A11DB11D809322039093230382
:1015F000A0932403B0932503E6CF0E94492C69836E
:101600007A838B839C838091220390912303A09102
:101610002403B091250329813A814B815C81821793
:101620009307A407B50778F65F9810924103CBCFD4
:10163000813021F05F988093410308955F9AFBCF3A
:101640009FB7F894809141039FBF08959FB7F89486
:10165000809140039FBF08959FB7F8948093400303
:101660009FBF08959FB7F89480913F039FBF08954F
:101670009FB7F89480933F039FBF08959FB7F89456
:1016800080913E039FBF08959FB7F89480913D03DA
:101690009FBF08952F923F924F925F926F927F92D9
:1016A0008F929F92CF92DF92EF92FF920F931F93B0
:1016B000CF93DF93CDB7DEB7C45AD1090FB6F894F4
:1016C000DEBF0FBECDBFE82EF92E80E00E94E51CE4
:1016D0000E94292C20E831E541E050E00E944A2F89
:1016E000922E832E20E13EE040E050E00E944A2FFF
:1016F000322E232ECF55DF4F688379838A839B83D5
:10170000C15AD0402CE330E040E050E00E944A2F24
:1017100029012CE3249DC001259D900D1124CF5556
:10172000DF4FC880D980C15AD040C81AD90A0E9458
:10173000A71F9F938F9386ED90E09F938F938E01C9
:101740000F5F1F4F1F930F930E946834080F191FDC
:10175000DF92CF925F924F922F923F928F929F9201
:1017600086EC90E09F938F931F930F930E946834B1
:10177000080F191F0E94A2101F928F938CEB90E00C
:101780009F938F931F930F930E946834080F191F24
:101790000E94A8101F928F9384EB90E09F938F93E9
:1017A0001F930F930E946834080F191F0E94440B67
:1017B000282F082E000C330B3F938F938AEA90E07A
:1017C0009F938F931F930F930E946834080F191FE4
:1017D0000FB6F894DEBF0FBECDBF0E94BA101F92A5
:1017E0008F9382EA90E09F938F931F930F930E94B1
:1017F0006834080F191F0E947B1F1F928F938AE97C
:1018000090E09F938F931F930F930E946834080F6B
:10181000191F0E947E1F9F938F9383E990E09F93EF
:101820008F931F930F930E946834080F191F0E9413
:10183000B01F1F928F9382E890E09F938F931F9326
:101840000F930E946834080F191F0E942B07CF5571
:10185000DF4F688379838A839B83C15AD0400FB658
:10186000F894DEBF0FBECDBF672B682B692B79F5CF
:101870001F9281E08F9386E790E09F938F931F9351
:101880000F930E9468340F900F900F900F900F905D
:101890000F906E2D7F2DCE0101960E944315CC55E1
:1018A000DF4F0FB6F894DEBF0FBECDBFDF91CF91F3
:1018B0001F910F91FF90EF90DF90CF909F908F90AE
:1018C0007F906F905F904F903F902F9008950E946F
:1018D000B61F1F928F9388E690E09F938F931F937C
:1018E0000F930E9468340F900F900F900F900F90FD
:1018F0000F90CFCF9FB7F89480913C039FBF08957E
:101900009FB7F89480933C039FBF0895282F392FE9
:10191000862F662399F0F90181502F5F3F4F280FE2
:10192000311D80E09191892798E04CE8869508F474
:1019300084279A95D9F7E217F307A1F70895E82FBE
:10194000F92FA081B1818E91928121E030E0A9012F
:1019500002C0440F551F9A95E2F7842B8C938FE7B2
:1019600097E00197F1F700C00000A081B1814E918E
:101970008281B90102C0660F771F8A95E2F7CB0119
:10198000809584238C938FE391E00197F1F700C059
:101990000000A081B18112978C91928102C0220F28
:1019A000331F9A95E2F78223EFE3F6E03197F1F7E0
:1019B00000C0000008950F931F93CF93DF93E82F8B
:1019C000F92F28E030E091E0C1E0D0E018C0AFEEA0
:1019D000B0E01197F1F700C00000A081B1818E91B5
:1019E00042818E0102C0000F111F4A95E2F7A80143
:1019F000409548234C93990F2150310921F1A08142
:101A0000B1818E9142818E0102C0000F111F4A9553
:101A1000E2F7802B8C93862F8923C9F210E51A9563
:101A2000F1F7A081B1818E9142818E0102C0000F39
:101A3000111F4A95E2F7A801409548234C9310EFF7
:101A40001A95F1F7D8CFDF91CF911F910F9108959B
:101A5000E82FF92FA081B1812E91328181E090E0B1
:101A6000AC0102C0440F551F3A95E2F7242B2C938A
:101A700025E12A95F1F70000A081B1812E913281F4
:101A800002C0880F991F3A95E2F7809582238C93C4
:101A90008AE28A95F1F700C0A081B18112978C91FA
:101AA00090E0228102C0959587952A95E2F7817092
:101AB000EFEBF0E03197F1F700C0000008954F928E
:101AC0005F926F927F928F929F92AF92BF92CF92CE
:101AD000DF92EF92FF920F931F93CF93DF93612CCE
:101AE0000F2EF3E4EF2EF3E0FF2EF02D0F2EF5E294
:101AF0008F2E912CF02D482C592C0F2EFEE4AF2E5A
:101B0000F3E0BF2EF02D04C088EE93E00E94712C0C
:101B1000D7014C9211965C92119712961C921297D3
:101B2000F40180818E7F8083ED91FC9182918E7F84
:101B30008083C7010E949F0C782E882361F08AEF72
:101B400090E00E9445286394F6E06F1609F460C0A7
:101B50006110DACFDDCF63E3C7010E94DB0C0F2EEB
:101B6000F6E4CF2EF3E0DF2EF02D10C0110F2197F9
:101B700039F0C7010E94280D8823C1F3012BF6CF4D
:101B8000D6010D936D01AA15BB0529F0072DC8E0FC
:101B9000D0E011E0EECF67E086E493E00E94860C8F
:101BA000F70192858913CBCF8381803109F441C03D
:101BB000883229F6E3E4F3E081E090E0958B848BB2
:101BC0008FE1878782EE90E00E944528809157033D
:101BD00090915803019791F183E493E00E949F0C48
:101BE0006CEC83E493E00E94DB0C6EE483E493E00E
:101BF0000E94DB0CC3E4D3E06D85CE010E94DB0CB8
:101C00006E85CE010E94DB0C8C899D890197D1F0F5
:101C1000DF91CF911F910F91FF90EF90DF90CF90C8
:101C2000BF90AF909F908F907F906F905F904F90FC
:101C300008951092580310925703C4CF8FE18093F8
:101C40005203CACF60915203CE010E94DB0CE0CF59
:101C5000BF92CF92DF92EF92FF920F931F93CF9399
:101C6000DF9300D000D000D0CDB7DEB76894BB249E
:101C7000B2F80F2EF7E5CF2EF3E0DF2EF02D5EC089
:101C80002FEF36E944E0215030404040E1F700C0FA
:101C9000000083E493E00E949F0C6CEC83E493E0EB
:101CA0000E94DB0C6EEB83E493E00E94DB0C0F2EB2
:101CB000FEE4EF2EF3E0FF2EF02D2AC05FEF8DE261
:101CC00099E0515080409040E1F700C00000E1CF22
:101CD000AFE7BFE4E2E1A150B040E040E1F700C06F
:101CE0000000D7CF110F89819A8101979A83898348
:101CF000892B41F083E493E00E94280D882391F31F
:101D0000012BF0CFD7010D937D01CA16DB0639F008
:101D100048E050E05A83498311E000E0EBCF68E0EF
:101D20008EE493E00E94860C90915603891749F146
:101D30000E945F0DBA94BB2009F474C183E493E060
:101D40000E949F0C6CEC83E493E00E94DB0C64E443
:101D500083E493E00E94DB0C809152038F3309F4FB
:101D6000ADCF8F3509F4B4CF8F3109F489CFFFEFB0
:101D70002EE934E2F15020403040E1F700C000008D
:101D800088CFE3E4F3E024858385922F22230CF4AB
:101D90004FC0E1E0ED832091570330915803232B8E
:101DA00009F449C0209152032F3509F49FC008F06F
:101DB0006BC02F3109F4D6C02F3309F063C09C01EA
:101DC00099230CF48CC0C90199230CF48DC03D817A
:101DD000632F330F770B95958795959587950E947F
:101DE000052F9C01990F440B550B29833A834B8394
:101DF0005C83CA01B9010E94FF2FE62F20E030E08A
:101E000040E85EE3E9837A838B839C8369817A81EE
:101E10008B819C810E94633069837A838B839C834E
:101E200069817A818B819C810E94C72F862FFBC09C
:101E3000BFEFBD83B0CF9C01990F440B550B298395
:101E40003A834B835C83CA01B9010E94FF2FE62FBE
:101E500020E030E040E05FE3E9837A838B839C837A
:101E600069817A818B819C810E94633069837A8346
:101E70008B839C8369817A818B819C810E94C72F8F
:101E8000862FD1C080E0CFC02F3739F59C01990F44
:101E9000440B550B29833A834B835C83CA01B901F8
:101EA0000E94FF2FE62F20E030E040E85DE3E98369
:101EB0007A838B839C8369817A818B819C810E9448
:101EC000633069837A838B839C8369817A818B8178
:101ED0009C810E94C72F862FA6C080E0A4C00E94CC
:101EE000272F282F392F6FCF039671CF9C0199236D
:101EF00094F1C9019923A4F13D81632F330F770B2E
:101F0000959587950E94052F9C01990F440B550BC1
:101F100029833A834B835C83CA01B9010E94FF2F56
:101F2000E62F20E030E040E05EE3E9837A838B83B4
:101F30009C8369817A818B819C810E946330698353
:101F40007A838B839C8369817A818B819C810E94B7
:101F5000C72F862F68C00E94272F282F392FC9CF5F
:101F60000196CACF9C0199230CF457C0C901330FC5
:101F7000AA0BBB0B89839A83AB83BC83BC01CD01C5
:101F80000E94FF2FE62F20E030E040E05EE3E9838F
:101F90007A838B839C8369817A818B819C810E9467
:101FA0006330F62E072F182F9E832D81022E000CF2
:101FB000330B440B550B29833A834B835C83CA0153
:101FC000B9010E94FF2F262F372F482F592FF98252
:101FD0000A831B838E818C8369817A818B819C81AA
:101FE0000E946330E62F20E030E040E05FE3E983C9
:101FF0007A838B839C8369817A818B819C810E9407
:10200000633069837A838B839C8369817A818B8136
:102010009C810E94C72F862F06C00E94272F282F41
:10202000392FA4CF80E026960FB6F894DEBF0FBEFE
:10203000CDBFDF91CF911F910F91FF90EF90DF9077
:10204000CF90BF9008950E94DB2D60935903709349
:102050005A0380935B0390935C034EE550E070E07D
:1020600060E089E593E00E94503708951F93CF9375
:10207000DF93182F4EE550E070E060E089E593E0D3
:102080000E941E378091B3038B3A31F4111134C092
:10209000DF91CF911F910895C9E5D3E08EE5FE0150
:1020A00011928A95E9F78DE291E00E94452883E03C
:1020B00090E09E838D838CE390E098878F8381E00E
:1020C000898792E09A878093B10380EF8093B2036F
:1020D00088E59BE19E878D8785E08B878BEA8093DF
:1020E000B3034DE050E06FE171E089E693E00E94B8
:1020F000A1330E942310CACF809159030E94CC2D96
:10210000C7CF4EE550E070E060E089E593E00E94C3
:102110002E3708958093B50308958091B5030895EF
:102120008093B60308958091B60308958091620369
:1021300008958093620308958091630308958093C6
:10214000630308958091AF0308958093AF030895CA
:102150008091B00308958093B003089527E0829F93
:10216000C0011124880F991F87599C4F08958093AF
:102170005D03089580915D030895E9E5F3E08481AE
:102180008F5F848308958091B40308958093B4038E
:1021900008958091B20308958093B20308958091C9
:1021A0006603909167030895909367038093660395
:1021B0000895809160039091610308959093610365
:1021C0008093600308958091B10308958093B103D3
:1021D000089580915E0390915F03089590935F034B
:1021E00080935E0308958091B30308958093B303B1
:1021F00008958091680308958093680308958091FD
:10220000640308958093640308958091650308959D
:10221000809365030895982F80ED890F8A3078F0B8
:102220008FEB890F863038F08FE9890F863030F4D4
:1022300089EA890F089589EC890F089580E008954F
:10224000CF93DF9300D000D0CDB7DEB70E94292C0A
:1022500069837A838B839C838091BF039091C003B1
:10226000A091C103B091C20329813A814B815C8165
:10227000281B390B4A0B5B0BDA01C9010B97A1052F
:10228000B10540F08091BE03882321F08093DD03E7
:102290001092BE030E94512E882309F46CC00E9444
:1022A000292C6093BF037093C0038093C103909364
:1022B000C2030E94462E9091BE03992329F09330C9
:1022C00021F190E080E059C0982F882309F45CC088
:1022D0008D3009F45CC08A3009F45CC08093F0034F
:1022E00021E030E03093BD032093BC0383E0809372
:1022F000BE039E3319F090E080E03FC01092F103DE
:102300001092BE0380EF93E038C02091BC0330915F
:10231000BD03F901E051FC4F8083A9014F5F5F4F7E
:102320005093BD034093BC03403491E0590788F4B7
:102330004230510590F1A9014150510921513C4FC2
:10234000D9019C919D3061F58A3061F090E080E088
:1023500014C01092BD031092BC031092BE0390E013
:1023600080E00BC040515C4FFA0110821092BE0316
:1023700080EF93E002C090E080E00F900F900F900C
:102380000F90DF91CF91089590E080E0F6CF90E03C
:1023900080E0F3CF90E080E0F0CF90E080E0EDCF00
:1023A00090E080E0EACFCF92DF92EF92FF920F931E
:1023B0001F93CF93DF93E62EF72EC42FD52F122F26
:1023C0006C01CE18DF08622F70E0802F90E00E9431
:1023D000F72E9C01C29EC001C39E900DD29E900D0F
:1023E0001124BE016E197F090E94362F812F860F9E
:1023F000DF91CF911F910F91FF90EF90DF90CF90E1
:102400000895CF93DF930E942011C82FD92F80E029
:10241000209751F060E572E0CE010E94AA33892B2B
:1024200031F081E08093E003DF91CF91089569E47A
:1024300072E0CE010E94AA33892BF1F06BE270E0CA
:10244000CE0106960E94EF33D82FC92F61E00E947B
:10245000E321811104C081E08093DE03E5CF81E0B8
:102460008093DF038DE0ED2FFC2FA2EEB3E001900F
:102470000D928A95E1F7EFCF62E472E0CE010E94FF
:10248000AA33892B09F487C0EF818E2F0E2E000C02
:10249000990BC0970A9710F081E0C6CFE05381E016
:1024A000E73010F60E2E000CFF0BEB56F84C0C9498
:1024B0006C2F0E941C1381E0B7CF84EF91E00E9443
:1024C000712C81E00E94A51081E00E94380B0E94CF
:1024D000811060E386E892E00E947D1381E0A4CF42
:1024E00084EF91E00E94712C80E00E94A51060E3CF
:1024F00084EA92E00E947D130E94811081E00E9494
:10250000380B81E091CF84EF91E00E94712C60E361
:102510008EEA92E00E947D1380ED97E00E94712C7C
:102520000E941C1388EC90E00E94712C82EE93E0D4
:102530000E944A0B81E078CF60E38FEB92E00E942B
:102540007D1380ED97E00E94712C81E00E94180BB2
:1025500081E06ACF60E385EB92E00E947D1380ED1D
:1025600097E00E94712C80E00E94180B81E05CCF04
:1025700060E38BEB92E00E947D1380ED97E00E9478
:10258000712C81E00E94AB1080E00E94A5100E9497
:10259000811081E049CF81E047CFCF92DF92EF9267
:1025A000FF921F93CF93DF9300D000D000D0CDB720
:1025B000DEB7E82EF92E162F7E830E94092CDC014F
:1025C000CB018E0D9F1DA11DB11D6C017D0107C0AA
:1025D0000E94092CC616D706E806F906B8F00E9434
:1025E00001128D838823A1F3612F7E8180EF93E018
:1025F0000E94FA33892B79F46DE373E080EF93E066
:102600000E94AA33892B59F31D8207C083E493E00B
:102610000E94452802C091E09D838D8126960FB6C9
:10262000F894DEBF0FBECDBFDF91CF911F91FF9019
:10263000EF90DF90CF900895CF93C1E015C088EC64
:1026400090E00E94712C0E94AC2E84EE92E00E94D9
:10265000942E64EC72E080ED97E00E94CD1281111F
:1026600013C0C53088F4CF5FC13049F70E94AC2E4B
:1026700084EE92E00E94942E64EC72E080ED97E08C
:102680000E94CD12882379F3CF910895CF92DF92E3
:10269000EF92FF92CF93DF9300D000D00F92CDB78F
:1026A000DEB7E82EF92E0E94092CDC01CB018E0D3D
:1026B0009F1DA11DB11D6C017D010E9401128D8322
:1026C00081110CC00E94092CC616D706E806F9062F
:1026D000A0F78BEF92E00E94452802C091E09D8315
:1026E0008D810F900F900F900F900F90DF91CF91F1
:1026F000FF90EF90DF90CF9008951F93CF93DF93DB
:10270000182FD92FC62F0E94AC2E81E393E00E9490
:10271000942E88EE93E00E944613811104C0DF914D
:10272000CF911F9108950E94AC2E8DE193E00E94FD
:10273000942E812F9D2F0E94762E80E193E00E949F
:10274000942E8C2F0E948C2E8DE093E00E94942E6C
:1027500064EC72E080ED97E00E94CD12982F81E04A
:102760009130E9F280E0DBCFCF93C1E01CC084E67A
:1027700090E00E94712C0E94AC2E81EF92E00E94AA
:10278000942E80ED97E00E944613882341F06AEE74
:1027900072E080EF93E00E94AA33892BD1F4C53018
:1027A00008F04EC0CF5FC13011F70E94AC2E81EF10
:1027B00092E00E94942E80ED97E00E9446138823B9
:1027C00089F36AEE72E080EF93E00E94AA33892BCE
:1027D00049F36CE270E080EF93E00E94EF33282F22
:1027E000392F21153105D9F26CE270E0C90101964B
:1027F0000E94EF33E82FF92F309789F2E1818E2F75
:102800000E2E000C990BC0970A9748F6E053E8305B
:1028100088F40E2E000CFF0BE456F84C0C946C2F31
:1028200083E00FC086E00DC087E00BC088E009C0E0
:1028300084E007C080E005C082E003C085E001C0FD
:1028400080E0CF910895CF92DF92EF92FF92CF93E5
:10285000DF9300D000D0CDB7DEB7C62ED72EE82E3E
:10286000F92E0E94092CC60ED71EE81EF91E88EC10
:1028700090E00E94712C0E94AC2E82EC92E00E94AB
:10288000942E07C00E94092CC616D706E806F90642
:1028900080F10E9401128823A9F36BEB72E080EFB4
:1028A00093E00E94AA33282F392F2115310589F38F
:1028B0006CE270E0C9010E94EF33282F392F2115F7
:1028C000310539F34AE050E070E060E0C90101965B
:1028D0000E942032DC01CB018B7F0197A105B1055D
:1028E00021F01092E10380E005C081E08093E103D4
:1028F00001C080E00F900F900F900F90DF91CF916B
:10290000FF90EF90DF90CF900895CF92DF92EF92FB
:10291000FF920F931F93CF93DF9300D000D00F92BD
:10292000CDB7DEB7082F192F0E94092C69837A834F
:102930008B839C836B017C01C00ED11EE11CF11CBA
:1029400000EF13E00BC00E94092C69837A838B830C
:102950009C83C616D706E806F906A0F00E9401126D
:102960008D83882381F3D8018C918E3349F065E7FC
:1029700072E0C8010E94AA33892B81F31D8202C034
:10298000B1E0BD838D810F900F900F900F900F904D
:10299000DF91CF911F910F91FF90EF90DF90CF903B
:1029A00008950F931F93CF93DF93082F192F7F93D1
:1029B0006F9386E692E09F938F9380EF93E09F93CF
:1029C0008F930E9468340F900F900F900F900F908C
:1029D0000F90C1E0D0E029C08CE291E00E94712C00
:1029E0000E94AC2E80EF93E00E94762E88EB9BE055
:1029F0000E9485148823B1F00E94AC2E802F912F65
:102A00000E94762E84E190E00E94712C8AE10E945F
:102A10008C2E64EC72E080ED97E00E94CD12D82FEE
:102A2000813039F1CA3048F5CF5FC130A9F60E9434
:102A3000AC2E80EF93E00E94762E88EB9BE00E9404
:102A40008514882389F30E94AC2E802F912F0E9439
:102A5000762E84E190E00E94712C8AE10E948C2EF7
:102A600064EC72E080ED97E00E94CD12D82F8130A7
:102A7000D9F681E080930201D1E08D2FDF91CF91D3
:102A80001F910F910895FF920F931F93CF93DF93A0
:102A9000F82E092F162FD72F2091D0033091D10374
:102AA000C0E01216130644F581E08093CC0384E65F
:102AB00090E00E94712C60ED77E080E090E00E9451
:102AC0002314811120C08091DB039091DC038F3FA0
:102AD000980729F001969093DC038093DB03612F24
:102AE0007D2F8F2D902F0E94D1141092CC0384E65D
:102AF00090E00E94712CC0E08C2FDF91CF911F914C
:102B00000F91FF90089588EC90E00E94712CDF9364
:102B10001F938BE792E09F938F9380EF93E09F93B7
:102B20008F930E9468340E94AC2E80EF93E00E9445
:102B3000762E88EE93E00E948514C82F0F900F9098
:102B40000F900F900F900F908823D9F08F2D902F1A
:102B50000E94762E84E690E00E94712C8AE10E9409
:102B60008C2E67EC72E080E69AEE0E94CD12C82FA0
:102B70008823A1F01092CC0384E690E00E94712C8F
:102B8000BBCF612F7D2F8F2D902F0E94D1141092DB
:102B9000CC0384E690E00E94712CAECF612F7D2F94
:102BA0008F2D902F0E94D114E5CFFF920F931F938A
:102BB000CF93DF93F82E092F162FD72F8091D003B4
:102BC0009091D103C0E0181619060CF04DC081E0B9
:102BD0008093CC0384E690E00E94712C60ED77E056
:102BE00080E090E00E942314882309F444C088EC1C
:102BF00090E00E94712CDF931F9387E592E09F93F2
:102C00008F9380EF93E09F938F930E9468340E948C
:102C1000AC2E80EF93E00E94762E88EE93E00E9427
:102C20008514C82F0F900F900F900F900F900F905A
:102C3000882379F18F2D902F0E94942E84E690E0C6
:102C40000E94712C8AE10E948C2E67EC72E080E673
:102C50009AEE0E94CD12C82F882341F11092CC0326
:102C600084E690E00E94712C8C2FDF91CF911F9110
:102C70000F91FF900895612F7D2F8F2D902F0E942F
:102C8000D1141092CC0384E690E00E94712CC0E035
:102C9000EBCF612F7D2F8F2D902F0E94D11410929A
:102CA000CC0384E690E00E94712CDECF612F7D2F53
:102CB0008F2D902F0E94D114D1CFBF92CF92DF924F
:102CC000EF92FF920F931F93CF93DF9300D000D02A
:102CD0000F92CDB7DEB78D83F92EB62EE72E0E9468
:102CE0001C132091D0033091D10380E012161306FB
:102CF000A4F58091E103882381F119820F2EF3EF6F
:102D0000CF2EF3E0DF2EF02D00EF13E088EE93E0FE
:102D10000E94712C89818F5F8983FF929D819F938F
:102D2000DF92CF921F930F930E9468340E94AC2EC3
:102D3000C8010E94762E64EC72E080ED97E00E945C
:102D4000CD120F900F900F900F900F900F90811158
:102D500013C089818430D0F280E00F900F900F90E3
:102D60000F900F90DF91CF911F910F91FF90EF90F7
:102D7000DF90CF90BF90089588EC90E00E94712C76
:102D800004C084EF91E00E94712C0E94B41385303E
:102D9000C1F388EC90E00E94712C0E94B41386303D
:102DA00051F188EC90E00E94712C0E94B4138230A3
:102DB00039F1B981B33069F60E94980A833009F479
:102DC0005AC0843009F45EC0823009F462C0873092
:102DD00009F466C0853009F46AC0863009F46EC013
:102DE000813009F472C080E00E94950A8FCF88EE8E
:102DF00093E00E94712C0E94B4138630C1F3D1CFAE
:102E000084EF91E00E94712C60E38B2D9E2D0E9437
:102E10007D1388EB9BE00E94712C60E38B2D9E2D2F
:102E20000E947D1388EB9BE00E94712C0E94292C4C
:102E300069837A838B839C836B017C01A8E2CA0E31
:102E4000D11CE11CF11C04C080ED97E00E94712CA4
:102E50000E94B413823059F40E94292C69837A832A
:102E60008B839C836C157D058E059F0568F30E94FE
:102E70001C1381E072CF6D817F2D8EED93E00E9457
:102E8000D515B1CF6D817F2D86EC93E00E94D515CD
:102E9000AACF6D817F2D8EEA93E00E94D515A3CF36
:102EA0006D817F2D8EE993E00E94D5159CCF6D81B9
:102EB0007F2D88E893E00E94D51595CF6D817F2DF9
:102EC00082E693E00E94D5158ECF6D817F2D80E53F
:102ED00093E00E94D51587CF1F93CF93DF93D82F10
:102EE000192F8091D0039091D1031816190684F5FB
:102EF00081E08093CC0384E690E00E94712CC0E0D6
:102F00000CC08C2F0E94AE106D2F712F0E945D1689
:102F10008091CF03813089F0CF5F8C2F0E94AE105B
:102F2000FC0120812B3249F4C53039F0CC2349F320
:102F300088EE93E00E94712CE4CF1092CC0384E6DB
:102F400090E00E94712C1092CF0380E00E94950ABD
:102F5000DF91CF911F9108951F93CF93DF93D82FC7
:102F6000192F8091D0039091D103181619064CF5B2
:102F700081E08093CC0384E690E00E94712CC0E055
:102F80000AC08C2F0E94AE10682F792F8D2F912FA1
:102F90000E94D515CF5F8C2F0E94AE10FC012081BE
:102FA0002B3249F4C53039F0CC2359F388EE93E045
:102FB0000E94712CE6CF1092CC0384E690E00E9430
:102FC000712CDF91CF911F910895E82FF92F808107
:102FD0008B32A9F49F012F5F3F4FAF01435F5F4FDB
:102FE000F90180812F5F3F4F082E000C990BC0978D
:102FF0000A9738F42417350799F781E0089580E09F
:10300000089580E00895CF9381E08093CC0384E617
:1030100090E00E94712C84E690E00E94712C0E9446
:10302000AC2E89E092E00E94942E64EC72E088EA73
:1030300091E60E94CD12C82F1092CC0384E690E056
:103040000E94712C8C2FCF9108958F929F92AF92F6
:10305000BF92CF92DF92EF92FF920F931F93CF9385
:10306000DF9300D000D00F92CDB7DEB7F090E00331
:10307000F11013C08F2D0F900F900F900F900F90A5
:10308000DF91CF911F910F91FF90EF90DF90CF9044
:10309000BF90AF909F908F90089581E08093CC0374
:1030A00084E690E00E94712C0E94AC2E8BE292E0AC
:1030B0000E94942E6EEC72E088E893E10E94CD129B
:1030C000F82E81E0F812D7C06AE370E080EF93E059
:1030D0000E94EF33482F592F4115510559F34F5F87
:1030E0005F4F90E08A014F5F5F4FD8012C91022E15
:1030F000000C330B205331092A30310520F09F5F3B
:10310000953081F7D7CF9530A9F24AE050E070E0D2
:1031100060E0C8010E942032862E972EA82EB92E7C
:1031200081149104B1E0AB06B10420F66CE270E0CA
:10313000C8010E94EF33282F392F2115310509F4DA
:10314000B9CF6CE270E0C9010E94EF33282F392F0C
:103150002115310509F4AECF6BE270E0C9010E9480
:10316000EF33082F192F0115110581F0C8010E94B6
:10317000E517882309F49ECF8DE0F801A2EEB3E0B5
:1031800001900D928A95E1F71092EF0388E893E1A0
:103190000E944613182F813059F00E940318109294
:1031A000E0031092CC0384E690E00E94712C62CF81
:1031B0000E94092C6B017C01E8EECE0EE3E0DE1EDE
:1031C000E11CF11C0E94092C6A837B838C839D8304
:1031D0006C157D058E059F05A0F00E94512E882359
:1031E00089F30E94462E8983898189830E94092C54
:1031F0006B017C01F8EECF0EF3E0DF1EE11CF11C49
:10320000E1CF80EF93E00E940F2203E00F2EFEE15A
:10321000CF2EF2E0DF2EF02D0F2EF0EFEF2EF3E0A9
:10322000FF2EF02D84E690E00E94712C9F928F92E9
:10323000DF92CF92FF92EF920E9468340E94AC2EF0
:10324000C7010E94762E64EC72E080E197E20E9452
:10325000CD120F900F900F900F900F900F90813024
:1032600011F00150F9F61092CC0384E690E00E9430
:10327000712CF12EFFCE0E9403181092E0031092E1
:10328000CC0384E690E00E94712CF12CF3CECF9316
:10329000DF9300D000D0CDB7DEB78091DE0381117F
:1032A00007C00F900F900F900F90DF91CF9108956E
:1032B0001092DE0381E08093CC0384E690E00E94CC
:1032C000712C8091DF03882309F452C00E94AC2E38
:1032D00083E092E00E94942E64EC72E080ED97E02F
:1032E0000E94CD12882309F44CC00E94A2108130A4
:1032F00009F44EC060E384EA92E00E947D1380ED01
:1033000097E00E94712C60E385ED92E00E947D13AE
:103310001092DF030E94292CDC01CB01CC96A11D69
:10332000B11D8093B8039093B903A093BA03B093EF
:10333000BB030E94B4138230D9F488EB9BE00E9457
:10334000712C0E94292C69837A838B839C838091C2
:10335000B8039091B903A091BA03B091BB0329813E
:103360003A814B815C8182179307A407B50708F760
:103370000E941C131092CC0384E690E00E94712CF2
:1033800090CF1092CC0384E690E00E94712C89CFFC
:1033900060E386E892E00E947D13B1CFCF92DF9286
:1033A000EF92FF92CF93DF9300D000D0CDB7DEB77E
:1033B0000E94292C6B017C0188E5C80E82E0D81E92
:1033C000E11CF11C0CC00E94292CC616D706E80689
:1033D000F90608F495C088EE93E00E94712C0E94D3
:1033E000AC2E8EEF91E00E94942E64EC72E088EE99
:1033F00093E00E94CD12882331F388E893E10E9484
:10340000712C0E94AC2E87EF91E00E94942E64EC08
:1034100072E088EE93E00E94CD12882301F384EFDE
:1034200091E00E94712C0E94AC2E8BEE91E00E94E4
:10343000942E64EC72E088EE93E00E94CD12882313
:1034400071F284EF91E00E94712C0E94AC2E87ED06
:1034500091E00E94942E64EC72E088EB9BE00E9465
:10346000CD12882309F4BBCF84EF91E00E94712C28
:103470000E94AC2E8BEC91E00E94942E64EC72E0E2
:1034800088EE93E00E94CD12882309F4A8CF88EB40
:103490009BE00E94712C0E94AC2E82EB91E00E9476
:1034A000942E64EC72E088EB9BE00E94CD1288239E
:1034B00009F495CF84EF91E00E94712C0E94AC2E0C
:1034C0008FE991E00E94942E64EC72E080ED97E029
:1034D0000E94CD128983882309F481CF60ED77E0C3
:1034E00080E090E00E94231489810F900F900F904C
:1034F0000F90DF91CF91FF90EF90DF90CF900895E4
:1035000081E00E94841A67CFCF93C82F0E94BA101F
:103510008E3FB0F40E94BD100E94811082E0809323
:10352000CC0384E690E00E94712C5C9885E00E94B8
:10353000A82C5C9A0E94CE19C13031F0CF91089529
:1035400080E00E94B710E8CFF894FFCFAF92BF920F
:10355000CF92DF92EF92FF920F931F93CF93DF935F
:1035600000D000D00F92CDB7DEB70E94292C69831E
:103570007A838B839C838091C8039091C903A09127
:10358000CA03B091CB0329813A814B815C818217B8
:103590009307A407B50790F0198289810F900F90C7
:1035A0000F900F900F90DF91CF911F910F91FF908F
:1035B000EF90DF90CF90BF90AF90089582E390E0BE
:1035C0000E94712C0E94AC2E8CED92E00E94942EF1
:1035D0006AED72E080ED97E00E94CD12882399F0A9
:1035E0006AE370E080EF93E00E94EF33E82FF92F59
:1035F00080E0309741F08281082E000C990BC09733
:103600000A9780F180E08093CE030E94292CDC0190
:10361000CB018C549F4FAF4FBF4F8093C803909303
:10362000C903A093CA03B093CB030E942B076983FD
:103630007A838B839C836B30710581059105C0F57E
:1036400060ED77E080E090E00E9423148111B0C02B
:103650008091C7038F5F8093C70385300CF0A3C0B0
:1036600019829BCF4AE050E070E060E0CF01029603
:103670000E942032462F572F682F792F80E040324A
:1036800051056105710508F0BECF4250510984E62D
:10369000849F9001859F300D1124AFE9B6E40E940C
:1036A0007A2F969587959695879596958795ABCF22
:1036B00031E0398322C084E690E00E94712C0E94A0
:1036C000AC2E83ED92E00E94942E80ED97E00E9454
:1036D0004613882359F06DEC72E080EF93E00E946E
:1036E000AA33282F392F2115310509F55981553075
:1036F00008F055C089818F5F898349814130D9F6AF
:103700000E94AC2E83ED92E00E94942E80ED97E013
:103710000E944613882371F36DEC72E080EF93E012
:103720000E94AA33282F392F2115310519F36AE396
:1037300070E0C9010E94EF33282F392F2115310580
:10374000A9F26CE270E0C9010E94EF33E82FF92F73
:10375000309761F28181082E000C990BC0970A976F
:1037600028F64AE050E070E060E0CF0101960E9448
:103770002032362F462F572F682F792F4F3F510574
:103780006105710511F008F0B1CF3093CD033931E7
:1037900008F056CF80EE92E00E94AC1751CF8FEF29
:1037A0008093CD034DCF80E00E94841A1982F5CE1C
:1037B0001092C7030E94292C69837A838B839C8390
:1037C000DC01CB018C549F4FAF4FBF4F8093C80398
:1037D0009093C903A093CA03B093CB0380910201D5
:1037E000882309F4ECC08091D0039091D10318167E
:1037F00019060CF0E7C081E08093CC0384E690E0EA
:103800000E94712C84E690E00E94712C0E94AC2EE4
:1038100084EA92E00E94942E6EEC72E088E893E1D4
:103820000E94CD128983813059F0109202011092CA
:10383000CC0384E690E00E94712C21E02983ADCE78
:103840006AE370E080EF93E00E94EF33482F592F36
:103850004115510509F49CC04F5F5F4F90E0FA019C
:103860004F5F5F4F2081022E000C330B2053310934
:103870002A30310560F09F5F963089F7109202017F
:103880001092CC0384E690E00E94712C86CE953095
:10389000A8F74AE050E070E060E0CF010E942032DB
:1038A000C62ED72EE82EF92EC114D10491E0E906D8
:1038B000F10480F486010B30110598F4011511050F
:1038C00091F4109202011092CC0384E690E00E94E1
:1038D000712C63CE1092CC0384E690E00E94712C90
:1038E0005CCE0E940318DF92CF9287E992E09F930B
:1038F0008F9380EF93E09F938F930E9468340E9490
:10390000AC2E80EF93E00E94762E6FEE72E080E6A0
:103910009AEE0E94CD120F900F900F900F900F9083
:103920000F90813009F044C0A3E0AD830F2EFAE878
:10393000AF2EF2E0BF2EF02D0F2EF0EFEF2EF3E0C2
:10394000FF2EF02D84E690E00E94712C1F930F93C0
:10395000BF92AF92FF92EF920E9468340E94AC2E09
:10396000C7010E94762E64EC72E080E797E10E9426
:10397000CD1289830F900F900F900F900F900F90A2
:10398000813079F0BD81B150BD83B111DBCF4FCF14
:10399000109202011092CC0384E690E00E94712CF8
:1039A000FCCD1092CC0384E690E00E94712CF5CD02
:1039B0001092CC0384E690E00E94712CEECD31E0B1
:1039C0003983EBCD41E04983E8CD2F923F924F926E
:1039D0005F926F927F928F929F92AF92BF92CF929F
:1039E000DF92EF92FF920F931F93CF93DF93CDB7A8
:1039F000DEB7C256D1090FB6F894DEBF0FBECDBFF9
:103A0000A3968FAFA39781E08093CC0384E690E0E8
:103A10000E94712C01E010E017C084EF91E00E9439
:103A2000712C0E94AC2E8BE891E00E94942E64ECE5
:103A300072E088E59BE10E94CD12811123C0043021
:103A400008F074C01F5F0F5F1111E7CF0E94AC2E0A
:103A50008BE891E00E94942E64EC72E088E59BE193
:103A60000E94CD12882371F30E94292C2B013C0166
:103A7000FEE14F0E511C611C711C8EE791E00E940B
:103A8000452810C00E94292C2B013C018EE1480ED4
:103A9000511C611C711C8EE791E00E944528133077
:103AA00008F044C05E01E1E6AE0EB11C0F2EF1ED50
:103AB0008F2EF02D0F2EF0ED9F2EF02D0E94292C31
:103AC000A2966CAF7DAF8EAF9FAFA29764157505C0
:103AD0008605970508F03CC10E942011082F192F78
:103AE0000115110559F367E771E0C8010E94AA3377
:103AF000892B21F362E270E0C80106960E94EF3341
:103B0000C82ED92EC114D104C9F29FEFC91AD90AFF
:103B10008CE5F601DE01119601900D928A95E1F790
:103B20008E010F5F1F4FF12CE12C28C01092CC03A7
:103B300084E690E00E94712C80E0C3C0813081F067
:103B4000813509F442C0803408F049C0F601EE0D19
:103B5000FF1D908280588183E2E0EE0EF11C09C0C7
:103B6000F601EE0DFF1D908281E8818392E0E90E5F
:103B7000F11C0C5F1F4F0A151B05D9F1D8018C9160
:103B80000E940B11282EF80181810E940B11220C3A
:103B9000220C220C220C280ED80112968C910E9425
:103BA0000B11382EF80183810E940B11330C330C5A
:103BB000330C330C830D2110C1CFF601EE0DFF1D28
:103BC0008083FFEFEF1AFF0AD4CFF601EE0DFF1D41
:103BD0008082A1E9A183B2E0EB0EF11CCACFF6010D
:103BE000EE0DFF1D8082805C8183F2E0EF0EF11C00
:103BF000C0CFF601EE0DFF1D108260E270E0C6013D
:103C00000E94EF33282F392F2115310509F456CFA3
:103C100060E270E0C90101960E94EF33082F192F6E
:103C20000115110509F44ACF0F5F1F4FD8010D9000
:103C30000020E9F79D0121503109201B310B80E064
:103C400001C08F5F482F50E04217530730F4F8014E
:103C5000E40FF51F90819032A1F7883008F04BC037
:103C6000B80182ED93E00E94D63367E372E0C801A9
:103C70000E94C433082F192F0115110509F44BC0F8
:103C800082ED93E00E943128C8010E946D33282FF5
:103C9000392F3093D1032093D003121613060CF062
:103CA0004AC02A30310534F4A396BFADA397B13092
:103CB00009F449C01092CC0384E690E00E94712C74
:103CC00081E0CE59DF4F0FB6F894DEBF0FBECDBFF7
:103CD000DF91CF911F910F91FF90EF90DF90CF90E8
:103CE000BF90AF909F908F907F906F905F904F901C
:103CF0003F902F90089543E050E063E771E082ED3C
:103D000093E00E94A1331092CC0384E690E00E94DD
:103D1000712C80E0D6CF43E050E06FE671E082ED99
:103D200093E00E94A1331092CC0384E690E00E94BD
:103D3000712C80E0C6CF1092CC0384E690E00E9404
:103D4000712C80E0BECF8EE591E00E94AC17B2CF1F
:103D500043E050E06AE571E082ED93E00E94A13318
:103D60001092CC0384E690E00E94712C80E0A9CFF1
:103D7000CF93DF9300D000D0CDB7DEB70E94492C9F
:103D800069837A838B839C838091C3039091C4035E
:103D9000A091C503B091C60380569A4FAF4FBF4F55
:103DA00029813A814B815C8182179307A407B5076B
:103DB00038F00F900F900F900F90DF91CF910895F2
:103DC00081E00E94E51C811114C08091C303909191
:103DD000C403A091C503B091C603CC96A11DB11D2B
:103DE0008093C3039093C403A093C503B093C60309
:103DF000E0CF0E94492C6093C3037093C403809367
:103E0000C5039093C603D5CFCF92DF92EF92FF9276
:103E10001F93CF93DF9300D000D00F92CDB7DEB7C2
:103E2000182F9D830E94292C6B017C0184E1C80E10
:103E3000D11CE11CF11C81E08093CC0384E690E06E
:103E40000E94712C19820E94AC2E8EE491E00E9497
:103E5000942E812F9D810E94762E86E491E00E940F
:103E6000942E64EC72E080ED97E00E94CD128111F7
:103E70000DC0A981AF5FA983A630B1F199819923C3
:103E800011F38CE291E00E94712CDDCFB981B53045
:103E900058F50E94292C6C157D058E059F0588F428
:103EA0000E942011282F392F2115310591F36EE33F
:103EB00071E0C9010E94AA33892B59F380E00E9466
:103EC000E51C1092CC0384E690E00E94712C0F90C8
:103ED0000F900F900F900F90DF91CF911F91FF9057
:103EE000EF90DF90CF9008951092CC0384E690E09D
:103EF0000E94712CECCF8091DD0308952FB7F894C8
:103F00008091DB039091DC032FBF08952FB7F894C5
:103F10008093DB039093DC032FBF08958091E1032E
:103F2000813081F081110DC08091B7038F5F809344
:103F3000B703833330F085B198E0892785B91092B3
:103F4000B70308952B9A089582EE93E0089582EDC9
:103F500093E008959FB7F8948091E1039FBF08957F
:103F60009FB7F8948091CE039FBF08959FB7F894B0
:103F70008091CD039FBF08959FB7F8948091CC03A3
:103F80009FBF0895A89589E2809360000E94BC209D
:103F9000882339F080E00E94F6100E948110F89486
:103FA000FFCF0E9439200E94982B0E94A42B0E94D0
:103FB000C0270E94192E6CE080E80E94EC040E9449
:103FC000DC27789480E194E00E94452881E00E94FB
:103FD00036100E94CE1981111FC00E9403180E9442
:103FE0005F0D0E94692C0E9435068CEF93E00E94C1
:103FF00045280E94C42B88EC90E00E94712C0E94FE
:10400000C42B88EC90E00E94712C0E94C42B88EC99
:1040100090E00E94712C13C081E00E94E51C85E0B5
:1040200094E00E944528D9CF0E9401120E94512E8F
:104030008111FACF0E94F727811118C088950E943C
:10404000692C0E9447190E9483070E94A61A0E94A9
:10405000B81E0E9435060E94440A0E9425180E943C
:10406000D50A0E94632B0E945C28E0CF0E94FB29A6
:10407000E1CF549A5C98559A5D98569A5E98579AF3
:104080005F983898409A3998419A3A98429A3B9862
:10409000439A22982A98259A2D98239A2B983C98EF
:1040A000449A3D98459A08951A9B12C0809135050F
:1040B000811117C0809134058F5F80933405833060
:1040C00068F081E0809336051092340582E00DC0DF
:1040D0001092340580913505811107C01092360584
:1040E00008951092340580913505815080933505EF
:1040F00008958091360508951F93CF93DF93C6B13D
:104100000E94C910D82F16B10E94C910C123C295B0
:10411000C07FCD238C23982F959595959595959552
:10412000882389F080913305811116C08091320572
:104130008F5F80933205833060F090933705109243
:10414000320582E00DC01092320580913305811155
:1041500007C01092370507C01092320580913305D1
:10416000815080933305DF91CF911F910895809105
:10417000370510923705089583B18695817091E0D7
:104180008927089534994BC00E94A210811107C05D
:10419000809131058F307CF48F5F809331050E94D0
:1041A000A210882301F1809131058F300CF58F5FCB
:1041B000809331050895809130058111F0CF90E012
:1041C00080E00E94032E80E00E94AB1080EF0E94EE
:1041D000CC1081E0809330050E94380B0E94811042
:1041E0000E94C42BDCCF0E940B2E0196E1F61DC06D
:1041F00080913005811119C00E94A51080E00E94B5
:10420000AB108FEF9FEF0E94032E81E0809330056B
:104210000E94380B0E9481100E94C42B0895359B88
:1042200005C0109231051092300508958FEF9FEF71
:104230000E94032E0E94A81081111CC0809131059C
:104240008F3024F48F5F809331050895809130057D
:104250008111EBCF81E00E94AB1080E00E94A5109D
:1042600081E0809330050E94380B0E9481100E94EB
:10427000C42B0895809131058F3024F48F5F809393
:1042800031050895809130058111CFCF0E94AB1088
:1042900080E00E94A51080E00E94800C0E948110A6
:1042A00081E0809330050E94380B0E94C42B089552
:1042B000AF92BF92CF92DF92EF92FF920F931F9334
:1042C000CF93DF93082F192FE62EF72ED42FC0E0BF
:1042D0008C2F0E94AE10FC011082CF5FC530C1F759
:1042E0006801C0E0AD2E0D2E000CBB08C6010E9477
:1042F000E517882389F0CF5FCA151B0411F00CF075
:1043000051C0F60195859B3339F09C3209F04DC0C0
:10431000FEE0CF0ED11CEACFCC2329F197016FEF3D
:104320006C0F87E0689FB0011124660F771FC701EB
:104330000E96680F791FC8014DE0FC01D90101906C
:104340000D924A95E1F7F90115860E96225F3F4FCF
:104350002617370789F7F7E0CF9FC0011124880F90
:10436000991F080F191FAC2EB12CB5018D2FDD0F31
:10437000990B0E94F72E6EE070E00E94052FD82E58
:10438000D92F6EE070E0C5010E94052F4D2D5D2FE5
:1043900070E060E08E0D9F1D0E94E83381E00E9476
:1043A000FC1005C010E000E002C010E000E0C80111
:1043B000DF91CF911F910F91FF90EF90DF90CF9001
:1043C000BF90AF9008950F931F93CF93DF93182F53
:1043D000092FD62F80E0613029F0DF91CF911F9116
:1043E0000F910895C0E003C0CF5FC530B1F08C2FAE
:1043F0000E94AE10FC0180818B32B1F78C2F0E949D
:10440000AE10682F792F4DE050E0812F902F0E9441
:10441000C933892B49F78D2FE0CF80E0DECF2F9273
:104420003F924F925F926F927F928F929F92AF9244
:10443000BF92CF92DF92EF92FF920F931F93CF9391
:10444000DF93CDB7DEB7C25AD1090FB6F894DEBFFD
:104450000FBECDBF082F192F44E050E061ED76E08C
:10446000C8010E949433892B09F469C044E050E0EC
:1044700065EB76E0C8010E949433892B09F499C258
:104480004DE050E063E976E0C8010E949433892B47
:1044900009F4E6C347E050E068E476E0C8010E9412
:1044A0009433892B09F4FDC345E050E06CE176E0DC
:1044B000C8010E949433892B09F40FC448E050E0EE
:1044C00065E076E0C8010E949433892B09F41EC48C
:1044D00048E050E06EEE75E0C8010E949433892BED
:1044E00009F42DC447E050E068ED75E0C8010E9472
:1044F0009433892B09F43CC44CE050E06DEB75E03B
:10450000C8010E949433892B09F447C446E050E067
:1045100065EA75E0C8010E949433892B09F06FC0E9
:10452000F8018681803309F464C4813309F067C0DF
:10453000F80187818B3309F062C05F9A60C00E94E6
:10454000A41F61E00E94E321882339F00C5F1F4F14
:10455000F12CE12CDD24D39410C00E94A41F682FFD
:10456000792F83EC96E00E94D51549C00E94EE1089
:1045700009811A810F5F1F4FF394F801808188230E
:1045800009F44AC41A8309834CE050E068E975E0F5
:10459000C8010E949433892B09F04BC0C8010C96C6
:1045A0009A838983F8012485022E000C330B205353
:1045B00031092A303105C0F44AE050E0BE016F5F96
:1045C0007F4F0E942032382F292F862F972FA32F1D
:1045D000B22F8136FAEE9F07A105B10528F4E981D3
:1045E000FA8120812B3311F280E00E9436100E9464
:1045F000A41F682F792F8AEB96E00E94D515CE551F
:10460000DF4F0FB6F894DEBF0FBECDBFDF91CF9165
:104610001F910F91FF90EF90DF90CF90BF90AF90E0
:104620009F908F907F906F905F904F903F902F90D2
:1046300008954CE050E06BE875E0C8010E949433A7
:10464000892B79F5C8010C969A838983F801248512
:10465000022E000C330B205331092A30310520F68D
:104660004AE050E0BE016F5F7F4F0E942032382F3A
:10467000292F862F972FA32FB22F8136FAEE9F076F
:10468000A105B10508F0B0CFE981FA8120812B3373
:1046900009F0AACF0E94DE1009811A810F5F1F4F17
:1046A0006BCF4EE050E06CE775E0C8010E94943398
:1046B000892BF9F4C8010E969A838983F80116852F
:1046C000212F012E000C330B205331092A303105E4
:1046D00008F08ACF0E946D338B3F08F085CF1B33E3
:1046E00009F082CF0E94021109811A810F5F1F4FCA
:1046F00043CF46E050E065E775E0C8010E9494337F
:10470000892B09F5F80186818033D9F0813309F0CE
:104710006BCFCD2CC80107969A838983F8018781D6
:104720008B3309F061CF8E2D0E94AB108C2D0E942F
:10473000A51080EF0E94CC1009811A810F5F1F4FD6
:104740001BCFCE2CE7CF4CE050E068E675E0C80107
:104750000E949433892B09F5F80184858033D9F0C0
:10476000813309F041CFCD2CC8010D969A838983FE
:10477000F80185858B3309F037CF8E2D0E94A51067
:104780008C2D0E94AB1080EF0E94CC1009811A8101
:104790000F5F1F4FF1CECE2CE7CF4AE050E06DE522
:1047A00075E0C8010E949433892BD9F4F801828501
:1047B0008033A9F0813309F017CF8D2D9801255F43
:1047C0003F4F3A832983F80193859B3309F00CCF3F
:1047D0000E94E61009811A810F5F1F4FCDCE8E2DEA
:1047E000EDCF4DE050E06FE475E0C8010E949433D6
:1047F000892BD9F4F80185858033A9F0813309F03C
:10480000F3CE8D2D9801225F3F4F3A832983F80123
:1048100096859B3309F0E8CE0E948A1009811A819F
:104820000F5F1F4FA9CE8E2DEDCF4DE050E063E41A
:1048300075E0C8010E949433892BD9F4F80185856D
:104840008033A9F0813309F0CFCE8D2D9801225FFE
:104850003F4F3A832983F80196859B3309F0C4CEF4
:104860000E94901009811A810F5F1F4F85CE8E2DF7
:10487000EDCF43E150E06FE275E0C8010E94943350
:10488000892BD9F4F80183898033A9F0813309F0A9
:10489000ABCE8D2D98012C5E3F4F3A832983F801D2
:1048A00094899B3309F0A0CE0E94991009811A8146
:1048B0000F5F1F4F61CE8E2DEDCF43E150E06CE1D5
:1048C00075E0C8010E949433892BD9F4F8018389DB
:1048D0008033A9F0813309F087CE8D2D98012C5EAD
:1048E0003F4F3A832983F80194899B3309F07CCEAA
:1048F0000E949F1009811A810F5F1F4F3DCE8E2DA0
:10490000EDCF49E050E062E175E0C8010E949433C8
:10491000892BD9F4F80181858033A9F0813309F01E
:1049200063CE8D2D9801265F3F4F3A832983F8018E
:1049300092859B3309F058CE0E94081109811A8193
:104940000F5F1F4F19CE8E2DEDCF4DE050E063E08D
:1049500075E0C8010E949433892B09F045CEC80147
:104960000D969A838983F8012585022E000C330B5E
:10497000205331092A30310508F036CE4AE050E0A4
:10498000BE016F5F7F4F0E942032862F972F8132AA
:10499000FEE49F0708F028CEE981FA8120812B33BD
:1049A00009F022CE0E94D41009811A810F5F1F4F97
:1049B000E3CD0E94A41F61E00E94E321882301F15E
:1049C0000C5F1F4F1982312CCE0101965C010F2E16
:1049D000F9EB4F2EF4E05F2EF02D0F2EF9EE8F2E17
:1049E000F4E09F2EF02D0F2EF5EECF2EF4E0DF2E0B
:1049F000F02D0F2EF3EE6F2EF4E07F2EF02D5AC027
:104A00000E94A41F682F792F87EA96E00E94D5158F
:104A1000F6CD045F1F4F9F928F92FF92EF920E94FC
:104A20006834E80EF91E0F900F900F900F90212C14
:104A3000CF55DF4F19830883C15AD040122D812FE3
:104A40000E94AE10FC0180818B3201F5812F0E9403
:104A5000AE109F938F93DF92CF92FF92EF920E94BE
:104A60006834E80EF91E1F5F0F900F900F900F90A3
:104A70000F900F90153019F7CF55DF4F088119812E
:104A8000C15AD040F1E0EF1AF10809C0212ECF55EC
:104A9000DF4F08811981C15AD0402110F3CF7F9296
:104AA0006F92FF92EF920E9468340F900F900F90D8
:104AB0000F903394F8018081882309F4A1C1F50196
:104AC00001900020E9F7CF0101977C014CE050E014
:104AD00066EF74E0C8010E949433892B09F499CFE2
:104AE0004CE050E066ED74E0C8010E949433892BDD
:104AF000D9F14CE050E06CEA74E0C8010E949433B4
:104B0000892B09F444C04AE050E064E874E0C8012D
:104B10000E949433892B09F44FC04DE050E068E6C1
:104B200074E0C8010E949433892B09F45AC04DE007
:104B300050E06BE474E0C8010E949433892B09F4BF
:104B400065C04DE050E06DE274E0C8010E9494330E
:104B5000892B09F470C00E94A41F682F792F81EA65
:104B600096E00E94D5154BCD045F1F4F0E94E910BF
:104B70009F938F935F924F92FF92EF920E946834BF
:104B80000F900F900F900F900F900F9092CF045FA7
:104B90001F4F0E94D9109F938F938FE894E09F93AB
:104BA0008F93FF92EF920E9468340F900F900F90B6
:104BB0000F900F900F907DCF065F1F4F0E94E31064
:104BC0001F928F9386E794E09F938F93FF92EF92CB
:104BD0000E9468340F900F900F900F900F900F90DD
:104BE00068CF035F1F4F0E948D101F928F9387E540
:104BF00094E09F938F93FF92EF920E9468340F90FE
:104C00000F900F900F900F900F9053CF035F1F4F97
:104C10000E9493101F928F938CE394E09F938F9345
:104C2000FF92EF920E9468340F900F900F900F90B8
:104C30000F900F903ECF035F1F4F0E94CF109F93A6
:104C40008F938BE194E09F938F93FF92EF920E945A
:104C500068340F900F900F900F900F900F9029CF06
:104C60000E94A41F61E00E94E321882389F080E074
:104C70000E94F6100E9481100E94A41F682F792FB5
:104C800080E596E00E94D51581E00E94841AB7CC99
:104C90000E94A41F682F792F85E896E00E94D51501
:104CA000AECC0E94A41F61E00E94E321882361F042
:104CB0000E94A41F682F792F82E296E00E94D515EA
:104CC00081E00E94841A9BCC0E94A41F682F792F38
:104CD0008AE396E00E94D51592CC0E94A41F61E061
:104CE0000E94E321882349F00E94A41F682F792F96
:104CF00088E198E00E94D51582CC0E94A41F682FFD
:104D0000792F8EE096E00E94D51579CC0E94A41FE1
:104D100061E00E94E321882349F00E94A41F682FCC
:104D2000792F87E797E00E94D51569CC0E94A41FD0
:104D3000682F792F87EF95E00E94D51560CC0E94EF
:104D4000A41F61E00E94E321882349F00E94A41F70
:104D5000682F792F86ED96E00E94D51550CC0E94E1
:104D6000A41F682F792F80EE95E00E94D51547CCBF
:104D70000E94A41F61E00E94E321882329F00E9481
:104D8000A41F0E944A0B3BCC0E94A41F682F792FBE
:104D90008AEC95E00E94D51532CC0E94F910882348
:104DA00039F00E94A41F61E00E94E3218130C1F428
:104DB00080E00E94AE10682F792F45E0C8010C9664
:104DC0000E94582181E00E94FC100E9481100E94E4
:104DD000A41F682F792F8AEB95E00E94D5150FCC80
:104DE0000E94A41F682F792F8CEA95E00E94D515A8
:104DF00006CCF80187818B3309F001CC5F98FFCB9B
:104E0000332009F4FCCB0E94A41F682F792FCE0118
:104E100001960E944315F3CBFF2009F4E5CB0E94D5
:104E200081100E94A41F682F792F80EC96E00E94C9
:104E3000D515E5CB80E00E94AE10682F792F41E0B8
:104E400086EF92E00E94582181E00E94FC100895B4
:104E50001F921FB61F9211248F939F93EF93FF937E
:104E600080914105813039F180914305811180C0E5
:104E700080913C05882309F445C080913B05815011
:104E800080933B05811174C010923C05109242053D
:104E9000E0914505F0E080913A05EA5BFA4F8083A6
:104EA000809145058F5F80934505803208F460C08E
:104EB000109245055DC0809140059FEF980F8130AD
:104EC000E1F480913D0590913E0580FF19C05B9A09
:104ED00080913D0590913E059695879590933E056E
:104EE00080933D0580913F05815080933F0593E07D
:104EF000811103C01092410593E090934005B4CF17
:104F00005B98E6CF80914205811110C04A9930C06C
:104F100081E08093420510923A0594E090933B051E
:104F200098E0909339058093380522C080913B0525
:104F30009FEF980F8130D1F44A9B07C080913A05CA
:104F400090913805892B80933A0580913805880F18
:104F5000809338058091390581508093390593E01D
:104F6000811104C081E080933C0593E090933B0560
:104F7000FF91EF919F918F911F901FBE1F901895E9
:104F80001092410510924205109243055B9A539A84
:104F900052989FB7F89484E48093B30082E08093A2
:104FA000B0008093B100E0E7F0E080818260808310
:104FB0001092B2009FBF089510924305089581E0BA
:104FC0008093430508959091440580914505981775
:104FD000E1F3E92FF0E0EA5BFA4F80819F5F9032C6
:104FE00018F4909344050895109244050895909103
:104FF000450581E0209144052913089580E0FDCF07
:10500000109245051092440508959091410581E064
:10501000913009F080E00895909141059130E1F3DD
:1050200093E0909340059AE090933F05880F990B89
:10503000926090933E0580933D0581E08093410509
:105040000895CF93DF93C82FD92F8881882331F01B
:1050500021960E940C2889918111FBCFDF91CF917D
:105060000895CF93DF93C82FD92F8881882331F0FB
:1050700021960E940C2889918111FBCF85E093E055
:105080000E942128DF91CF910895CF93DF93E82FDD
:10509000F92FEF0121968491882339F00E940C2882
:1050A000FE01849121968111F9CF85E093E00E9461
:1050B0002128DF91CF9108958091030181110BC0C8
:1050C000809166058111089581E08093660585ECE5
:1050D00098E00E94AC17809103018130A1F7809184
:1050E0006605813081F71092660589EB98E00E9491
:1050F000AC17E9CF482F592F8FEF860F6623B9F0F1
:10510000682F70E06F5F7F4F640F751F8FEFFA019C
:105110004F5F5F4F2081022E000C330B2827F901CF
:10512000E45FFE4F80814617570789F708958FEF98
:105130000895EF92FF920F931F93CF93DF93CDB714
:10514000DEB7CC57D1090FB6F894DEBF0FBECDBF86
:105150008BE2898385E58A838AE38B830E94A71F7C
:105160009F938F9386E399E09F938F938E010C5FBB
:105170001F4F1F930F930E946834080F191F0E943E
:10518000A2101F928F9380E399E09F938F931F93B8
:105190000F930E946834080F191F0E94A8101F92D5
:1051A0008F9389E299E09F938F931F930F930E94AF
:1051B0006834080F191F0E94440B282F082E000C7A
:1051C000330B3F938F9382E299E09F938F931F93CA
:1051D0000F930E946834080F191F0E943E0B282F5E
:1051E000082E000C330B3F938F938BE199E09F9334
:1051F0008F931F930F930E946834080F191F0E940A
:10520000BA101F928F9385E199E09F938F931F931C
:105210000F930E946834080F191F0FB6F894DEBF71
:105220000FBECDBF0E94B01F1F928F938DE099E0FB
:105230009F938F931F930F930E946834080F191F39
:105240000E94AA1F1F928F9387E099E09F938F93EC
:105250001F930F930E946834080F191F0E942B0799
:10526000ED966CAF7DAF8EAF9FAFED970FB6F89414
:10527000DEBF0FBECDBF672B682B692B09F0A6C020
:105280001F928EE68F9381E099E09F938F931F93F7
:105290000F930E946834080F191F0F900F900F9002
:1052A0000F900F900F900E94260B1F928F9385EF07
:1052B00098E09F938F931F930F930E946834080F79
:1052C000191F0E94200B1F928F938FEE98E09F93DF
:1052D0008F931F930F930E946834080F191F0E9429
:1052E000132E1F928F9389EE98E09F938F931F93B5
:1052F0000F930E946834080F191F0E947A0C1F92A6
:105300008F9382EE98E09F938F931F930F930E9449
:105310006834080F191F0E94BC1F1F928F938BEDDA
:1053200098E09F938F931F930F930E946834080F08
:10533000191F0E94292C9F938F937F936F9385ED64
:1053400098E09F938F931F930F930E946834080FE8
:10535000191FCE0101967C01FC0101900020E9F7A4
:105360003197BF01681B790B0FB6F894DEBF0FBEF3
:10537000CDBF0E947A281F928F9381ED98E09F9372
:105380008F931F930F930E946834C7010E943128A6
:105390000E94292C60936D0570936E0580936F05B4
:1053A000909370050F900F900F900F900F900F90AB
:1053B000C458DF4F0FB6F894DEBF0FBECDBFDF91EC
:1053C000CF911F910F91FF90EF9008950E94B61F0B
:1053D0001F928F938BEF98E09F938F931F930F9360
:1053E0000E946834080F191F0F900F900F900F90B4
:1053F0000F900F9058CFCF93DF93CDB7DEB7649760
:105400000FB6F894DEBF0FBECDBF0E94292C698B6A
:105410007A8B8B8B9C8B8091690590916A05A0910A
:105420006B05B0916C0529893A894B895C89281BE9
:10543000390B4A0B5B0BDA01C9010B97A105B105CA
:1054400028F0809168058111109268050E94F72765
:10545000882301F10E94292C6093690570936A05E5
:1054600080936B0590936C050E94E32790916805EB
:10547000992321F0933081F080E029C0882351F0F6
:105480008A3041F08093710581E08093670583E065
:105490008093680580E01BC0E0916705AE2FB0E007
:1054A000AF58BA4F8C93EF5FE0936705EF31C0F4CC
:1054B000E23080F3F0E0E059FA4F80818A3051F712
:1054C0001092680580917105813679F080E06496CC
:1054D0000FB6F894DEBF0FBECDBFDF91CF91089518
:1054E0001092670510926805D5CF809172058637B6
:1054F00011F080E0ECCF62E979E083E795E00E946B
:10550000AA33892B09F05FC06BE879E083E795E067
:105510000E94AA33892B09F05DC065E879E083E732
:1055200095E00E94AA33892B09F058C06FE779E013
:1055300083E795E00E94AA33892B09F05BC069E7F5
:1055400079E083E795E00E94AA33892B09F05BC0DC
:1055500063E779E083E795E00E94AA33892B09F09D
:1055600061C06DE679E083E795E00E94AA33892B5C
:1055700009F064C067E679E083E795E00E94AA330A
:10558000892B09F05EC062E679E083E795E00E942E
:10559000AA33892B09F05AC067E579E083E795E0E3
:1055A0000E94AA33892B09F055C06CE479E083E7A7
:1055B00095E00E94AA33892B09F451C080E00E9433
:1055C000841A81E084CF81E00E94180B0E94992800
:1055D00081E07DCF80E00E94180BF8CF80E00E9430
:1055E000AB1081E00E94A51081E00E94380B0E9460
:1055F0008110ECCF80E00E94A51081E00E94380B62
:105600000E948110E3CF80E00E94A51081E00E94FB
:10561000AB1081E00E94380B80E00E94800C0E9459
:105620008110D4CF80E00E94AB1080E00E94800CFB
:1056300081E00E94380B0E948110C8CF0E94C02BCD
:10564000C5CF80E395E70E94E02CC0CF80E00E94A8
:10565000E51CBCCF81E00E94841A81E038CF66E46B
:1056600079E083E795E00E94AA33892B31F08FB768
:10567000F894109203018FBFA9CF60E479E083E72B
:1056800095E00E94AA33892B39F08FB7F89491E006
:10569000909303018FBF9ACF6CE379E083E795E0A5
:1056A0000E94AA33892B09F491CF80E1E8E7F5E065
:1056B000DE01119601900D928A95E1F7CE010196D7
:1056C0000E94041F83CFCF93DF9300D000D0CDB7CB
:1056D000DEB70E94320B813009F10E94292C6983C8
:1056E0007A838B839C8380916D0590916E05A09148
:1056F0006F05B09170054E96A11DB11D29813A81AB
:105700004B815C81281739074A075B0770F40F90BB
:105710000F900F900F90DF91CF91089580E00E943D
:105720002C0B80E00E94380BF2CF0E949928EFCF1B
:1057300014BC15BC16BC85EA87BD84B5826084BDE7
:1057400085B5836085BD0895F89410928000E1E8E6
:10575000F0E01082109285001092840080E792E0C1
:105760009093890080938800808188608083808105
:1057700084608083EFE6F0E080818260808308951A
:1057800010929E055D9808959FB7F894EEE6F0E0BC
:105790008081826080839FBF789408951F921FB696
:1057A0001F9211248F939F93EF93FF938BB190E4FB
:1057B00089278BB9809193058F5F809393058536F8
:1057C00040F05E9810929305EEE6F0E080818D7FC8
:1057D0008083FF91EF919F918F911F901FBE1F902B
:1057E00018950E94A810813071F4809190058F5F08
:1057F000809390058F3160F085B190E2892785B95B
:105800001092900508950E94A210811101C02D9858
:105810000895CF93DF9300D000D0CDB7DEB78FB718
:10582000F8942091A7053091A8054091A9055091C1
:10583000AA0529833A834B835C838FBF69817A8170
:105840008B819C810F900F900F900F90DF91CF91E3
:105850000895CF93DF9300D000D0CDB7DEB78FB7D8
:10586000F8942091A3053091A4054091A50550918D
:10587000A60529833A834B835C838FBF69817A8134
:105880008B819C810F900F900F900F90DF91CF91A3
:105890000895CF93DF9300D000D0CDB7DEB78FB798
:1058A000F89420919F053091A0054091A105509159
:1058B000A20529833A834B835C838FBF69817A81F8
:1058C0008B819C810F900F900F900F90DF91CF9163
:1058D00008958FB7F89410929B0510929A058FBF88
:1058E0000895CF92DF92EF92FF92CF93DF9300D093
:1058F00000D0CDB7DEB7E82EF92E0E94092CDC01CE
:10590000CB018E0D9F1DA11DB11D6C017D018895E0
:105910000DC00E9401120E94512E8111FACF02C0C7
:105920000E94FB290E94F7278111FACF0E94092CBF
:105930006C157D058E059F0570F30F900F900F90ED
:105940000F90DF91CF91FF90EF90DF90CF9008956F
:10595000CF92DF92EF92FF92CF93DF9300D000D0EF
:10596000CDB7DEB7F82E0E94292CDC01CB018F0DBC
:10597000911DA11DB11D6C017D0188950DC00E9476
:1059800001120E94512E8111FACF02C00E94FB2900
:105990000E94F7278111FACF0E94292C6C157D05F2
:1059A0008E059F0570F30F900F900F900F90DF9171
:1059B000CF91FF90EF90DF90CF9008955D9A08957A
:1059C000F89421E020939E0580939C0590939D057B
:1059D00080E00E94DE2C789408955D9808951F92CF
:1059E0000F920FB60F9211242F933F934F935F9313
:1059F0006F937F938F939F93AF93BF93EF93FF9397
:105A00000E94F12B0E948E1F0E947C200E94C220C7
:105A10000E94542080919E05882361F080919C050E
:105A200090919D058A30910588F10A9790939D0584
:105A300080939C058091A7059091A805A091A90548
:105A4000B091AA050A96A11DB11D8093A705909358
:105A5000A805A093A905B093AA05809192058F5F30
:105A60008436E8F480939205A895FF91EF91BF9159
:105A7000AF919F918F917F916F915F914F913F91E6
:105A80002F910F900FBE0F901F90189510929D05AB
:105A900010929C0510929E050E94ED2CCBCF109287
:105AA00092058091A3059091A405A091A505B091C0
:105AB000A6050196A11DB11D8093A3059093A40591
:105AC000A093A505B093A6058091040190910501CE
:105AD0008F3F980729F00196909305018093040168
