:100000000C94CD040C94EA040C94EA040C94EA04D5
:100010000C94EA040C94EA040C94EA040C945C2218
:100020000C94EA040C94EA040C94EA040C94D5278A
:100030000C94EA040C94EA040C94BB260C94EA0495
:100040000C94EA040C94EA040C940F290C94EA042E
:100050000C94EA040C94EA040C94EA040C94EA0468
:100060000C94EA040C94EA04626174746572793D3C
:10007000256425253B00655F706F7765723D2575AA
:100080003B007369676E616C5F67736D3D25642526
:10009000253B00673D2568753B00675F723D257510
:1000A0003B006D63753D25753B0074656D703D25A6
:1000B00064433B006C5F673D25643B00677561727C
:1000C000643D25643B00743D257564257568257580
:1000D0006D2575733B006465706F7369743D25739E
:1000E0003B00312D57697265206465766963652030
:1000F00064657465637465642E004572726F722165
:1001000021212043616E206E6F742066696E642029
:10011000312D576972652064657669636521002B0E
:10012000333830373133333138303930006565702A
:10013000726F6D5F66697273745F736574002B43D1
:100140005553443A300023222C31350D0A004154D6
:100150002B435553443D312C220065727200446597
:10016000706F736974203C20313020525542006515
:10017000727200657272002B435553443A007573D6
:1001800073642073656E64206F6B0041542B43557C
:1001900053443D312C222A31303123220D0A0041B3
:1001A000542B444445543D312C35302C302C310DEA
:1001B0000A0041542B43504D533D22534D222C22D3
:1001C000534D222C22534D220D0A0041542B434CF7
:1001D00049503D310D0A0041542B434E4D493D32AB
:1001E0002C312C302C312C300D0A0041542B434D36
:1001F00047463D310D0A00415445300D0A00415437
:100200000D0A004154410D0A0041542B434D47440F
:10021000413D2244454C20414C4C220D0A004154A2
:100220002B434D47443D25640D0A0041542B434D5B
:10023000474C3D2252454320554E52454144220DE4
:100240000A002B44544D463A002B434C49503A0087
:100250002B434D54493A0041542B434D47533D22C3
:100260002573220D0A0041542B434D47573D22254B
:1002700073220D0A004552524F520041542B434DF8
:1002800047533D222573220D0A0041542B434D470D
:10029000443D25640D0A0041542B434D53533D25E5
:1002A000640D0A0041542B434D474C3D2253544F9B
:1002B00020554E53454E54220D0A002B43524547BC
:1002C0003A0041542B435245473F0D0A002B43420D
:1002D000433A0041542B4342430D0A0041542B43FF
:1002E00053510D004154480D0A002B434C43433AEF
:1002F0000041542B434C43430D0A0077616974203D
:100300007374722074696D6520656E64000D0A0057
:100310002E616D72222C302C3130302C0041542B48
:10032000435245433D342C22433A5C557365725C1D
:100330000041542B435245433D350D0A004552526E
:100340004F5200636D642074696D6520656E6400B2
:10035000416C61726D2120434F55525459415244B2
:100360002100416C61726D2120496E7465726E616D
:100370006C2054454D5045524154555245203E2025
:100380003635432021212100416C61726D212054BA
:10039000454D504552415455524521212100416C53
:1003A00061726D2120534D4F4B4521212100414C5D
:1003B00041524D21204D6F74696F6E2120436F6F44
:1003C0006B726F6F6D00414C41524D2120496E762A
:1003D0006173696F6E212047617264656E00414CE4
:1003E00041524D21204D6F74696F6E212046726F0E
:1003F0006E740041544425733B0D0A00656E642001
:100400006D61696E0073657475705F6F6B0D0A00C6
:1004100053746172742E2E2E0D0A006D74696D6511
:100420005F73656E735F6D733D25753B006D746919
:100430006D655F73656E735F6D733B0061636365CC
:1004400070745F736D733D25643B00616363657019
:10045000745F736D733B006163636570745F6361A8
:100460006C6C733D25643B006163636570745F630E
:10047000616C6C733B006175746F67756172643D8C
:1004800025643B006175746F67756172643B006938
:100490006E74657276616C5F61667465725F6D6FB4
:1004A00074696F6E5F683D2575683B0061667465B1
:1004B000726D6F74696F6E3B00696E746572766100
:1004C0006C5F61667465725F627574746F6E5F6D88
:1004D0003D25756D3B0062746E696E746572766160
:1004E0006C3B003B0025732C0061646D696E706885
:1004F0006F6E65733D0061646D696E70686F6E65E7
:10050000733B006D74696D655F73656E735F6D73CA
:100510003D00735F73656E736F723D00706F77653A
:10052000725F6F6E5F7265706F72745F6D3D0070A9
:100530006F7765725F6F66665F7265706F72745F0A
:100540006D3D006163636570745F736D733D006141
:1005500063636570745F63616C6C733D0061757497
:100560006F67756172643D006C6F63616C5F677586
:100570006172643D0067756172643D0070617573FE
:10058000655F616C61726D5F733D00616674657279
:100590006D6F74696F6E3D0062746E696E74657222
:1005A00076616C3D006C696768743D00416363650A
:1005B00073732064656E696564004F6B0061646DE0
:1005C000696E70686F6E65733D0041636365737338
:1005D0002064656E696564007265706F72743B00BB
:1005E0004163636573732064656E69656400686563
:1005F0006C707365743B004163636573732064655D
:100600006E6965640068656C706765743B00416382
:10061000636573732064656E6965640068656C70FA
:100620003B00526573657420636F6D6D616E64206D
:1006300061636365707465642E0041636365737301
:100640002064656E696564007265626F6F743B005B
:1006500044657669636520726573657420646566B8
:1006600061756C742C2073656E642061646D696EB5
:1006700070686F6E65733D4E554D4245525F5048F0
:100680004F4E4553004163636573732064656E6923
:10069000656400726573657464656661756C743B4E
:1006A000006572726F7200416363657373206465E5
:1006B0006E696564006765743A006572726F7200F6
:1006C0006F6B004163636573732064656E69656475
:1006D000007365743A007365743A62746E696E747F
:1006E000657276616C3D3B61667465726D6F7469AD
:1006F0006F6E3D3B6163636570745F63616C6C73C7
:100700003D3B766F6963653D3B67756172643D3B58
:100710006C6F63616C5F67756172643D3B6175749A
:100720006F67756172643D3B6D74696D655F73657C
:100730006E735F6D733D3B6D70617573655F6D7357
:100740003D3B70617573655F616C61726D5F733D98
:100750003B7265706F72745F706F7765723D0000F9
:100760000000000000000000000000000000000089
:10077000000000000000006765743A61646D696EF6
:1007800070686F6E65733B6163636570745F63610E
:100790006C6C733B62746E696E74657276616C3BEF
:1007A00061667465726D6F74696F6E3B6175746FAD
:1007B00067756172643B6D74696D655F73656E73B7
:1007C0005F6D733B6D70617573655F6D733B7265D3
:1007D000706F72745F706F776572000000000000C8
:1007E0000000000000000000000000000000000009
:1007F00000000000000000000000000000000000F9
:1008000000000000000000000000000000000000E8
:10081000000000000000000068656C707365743BA8
:1008200068656C706765743B7265706F72743B616C
:10083000646D696E70686F6E65733B7265626F6F31
:10084000743B726573657464656661756C743B7046
:1008500061795F636F64653D3B6C696768743D3BBC
:100860000000000000000000000000000000000088
:100870000000000000000000000000000000000078
:100880000000000000000000000000000000000068
:100890000000000000000000000000000000000058
:1008A0000000000000000000000000000000000048
:1008B000000000000000000000496E7465726E6563
:1008C00074204F4B004E6F20496E7465726E6574D4
:1008D000003B257500743D256C7500626D3D2575E6
:1008E00026006D693D257526007A3D257526006C2C
:1008F0003D25752600733D25752600623D2575262C
:1009000000623D25752600723D25752600736967D6
:100910003D257526006D3D2575260074653D2564D1
:10092000260074693D256426006C673D2575260008
:10093000673D25752600643D257326002A31300069
:1009400070696E67310070696E6730007265626F42
:100950006F745F67736D007265626F6F745F616C57
:100960006C00757373640062757A3D310062757A4C
:100970003D30006C5F673D30006C5F673D31006D5E
:100980005F673D30006D5F673D31006C616D703DAC
:1009900030006C616D703D31000011241FBECFEF3F
:1009A000D8E0DEBFCDBF13E0A0E0B1E0EAEDF4E6B1
:1009B00002C005900D92A031B107D9F726E0A0E161
:1009C000B3E001C01D92AD3BB207E1F70E94AC2934
:1009D0000C945B320C9400001092100390917A00FA
:1009E000906890937A0090917A00987F90937A0023
:1009F000803191F188F4843059F140F48823B1F0CA
:100A00008230A1F080917A00876013C08830D1F7DE
:100A100080917A0083600DC0803411F1803891F3A9
:100A2000803281F780917A00856003C080917A00DE
:100A3000816080937A0080917C006A30A9F48F7382
:100A400080937C0080917C008F7D80937C00089552
:100A500080917A008260EDCF80917A008460E9CF46
:100A600080917A008660E5CF6B3031F48F77809388
:100A70007C0080917C0002C06C30C1F78064E0CFC4
:100A800090917A00906890937A0090917C00907F8A
:100A900090937C00893060F5E82FF0E0E35AFD4C3C
:100AA00080917C000C94582A816080937C00809116
:100AB0007A00806480937A0080917A0084FFFCCF72
:100AC00080917A008F7780937A008091780090915E
:100AD000790008958260E9CF8360E7CF8460E5CF35
:100AE0008560E3CF8660E1CF8760DFCF8860DDCFB0
:100AF00080917C00807FD9CFFF920F931F93CF937B
:100B0000DF93F82E0E944005EC019093210380931F
:100B100020038F2D0E9440058C0190932303809326
:100B200022038F2D0E9440059C0190932503809302
:100B300024030C171D0738F0C8012C173D0738F4A3
:100B4000C017D10771F42017310758F0CE012817CC
:100B5000390708F4C901DF91CF911F910F91FF90E0
:100B60000895CE010C171D07B0F7C801F4CF88E037
:100B70000E947C058054089586E00E947C0589359A
:100B80009240A0F48091260390912703A09128031E
:100B9000B09129030196A11DB11D80932603909366
:100BA0002703A0932803B0932903089580E090E0E1
:100BB000DC01F3CFCF92DF92EF92FF92CF93DF93DE
:100BC00000D000D0CDB7DEB70E94F22669837A83C9
:100BD0008B839C8380911C0390911D03A0911E0325
:100BE000B0911F0329813A814B815C81281B390B0D
:100BF0004A0B5B0BDA01C901883E9340A105B105A0
:100C000060F00E94F22660931C0370931D03809392
:100C10001E0390931F030E94BC05809126039091B0
:100C20002703A0912803B0912903892B8A2B8B2BB2
:100C300009F065C00E94500F882309F455C08091C7
:100C40001B03811106C081E080931B038AE00E9490
:100C50008F2780910101811141C00E94122760936A
:100C60001703709318038093190390931A0381E07C
:100C700080930101809316030E94500F282F30E0CB
:100C8000ACE3B0E00E945E2AC0901703D090180336
:100C9000E0901903F0901A03C60ED71EE81EF91E45
:100CA0000E94122769837A838B839C83C616D7069A
:100CB000E806F906C8F41092160381E0809300015B
:100CC00084E192E00F900F900F900F90DF91CF9101
:100CD000FF90EF90DF90CF900C94C2149091160388
:100CE000913011F4813041F20F900F900F900F90DE
:100CF000DF91CF91FF90EF90DF90CF9008950E9409
:100D00004A0F882389F32FB7F89480912603909196
:100D10002703A0912803B09129032FBF80931203CA
:100D200090931303A0931403B09315030E9412270A
:100D300060931703709318038093190390931A0319
:100D400080911B03813011F410921B0380910001EC
:100D50008130E9F40E944A0F282F30E0ACE3B0E084
:100D60000E945E2A69837A838B839C83809112031D
:100D700090911303A0911403B091150329813A8136
:100D80004B815C81281739074A075B0728F080915F
:100D90001103813009F0A8CF1092110310920101C4
:100DA000109200018AE292E08DCFCF93DF9300D0C2
:100DB00000D0CDB7DEB78FB7F894209126033091DD
:100DC0002703409128035091290329833A834B83B9
:100DD0005C838FBF69817A818B819C810F900F909A
:100DE0000F900F90DF91CF91089580914A0388234F
:100DF00051F180934803843001F168F48230D1F0DE
:100E0000833081F0813099F010924A0380E00E9493
:100E1000590F0C94D327873098F08730A9F78DE5C8
:100E200092E002C081E492E00E948014EDCF89E458
:100E300092E0FACF80E592E0F7CF86E592E0F4CF3A
:100E400082E692E0F1CF0895CF92DF92EF92FF9287
:100E5000CF93DF9300D000D000D0CDB7DEB70E9493
:100E6000560F882309F43CC10E94C31C8D830E9445
:100E70007B0F8E832D81222309F4B0C080914A0319
:100E80008111ACC00E94750F811189C0809143030C
:100E9000811167C00E94F22660933F037093400364
:100EA000809341039093420381E0809343030E9427
:100EB000F5060E94560F81115BC20E94F1288983BA
:100EC0009A830E94950F81110AC049815A814F3F30
:100ED0005F4F29F081E00E94980F0E94360F0E9418
:100EE0009B0F4CE3489F9001499F300D1124A9812D
:100EF000BA812A173B0708F03BC2119609F438C2A1
:100F000081E00E94590F80E00E945F0F0E94360F1F
:100F10008FEF9FEF0E94E9280E94B12684E690E0BF
:100F20000E945A270E94B1260E94410F813021F46D
:100F30008EE892E00E9480140E94470F813009F0F1
:100F400017C285E992E026960FB6F894DEBF0FBE71
:100F5000CDBFDF91CF91FF90EF90DF90CF900C94B9
:100F6000C2148130E1F40E94F22669837A838B8374
:100F70009C8380913F0390914003A0914103B091E5
:100F8000420388519C4FAF4FBF4F29813A814B811B
:100F90005C81281739074A075B0708F488CF10924D
:100FA000430380E00E94B22881E080933E0380E604
:100FB0009AEE0E94C6273D8130FF33C04E814037F4
:100FC00061F580EF0E947E0F80E00E94590F0E9421
:100FD000360F10923E0383E080934A0380914303CF
:100FE000813009F052C00E94F2266B017C010E9400
:100FF000810F40913F0350914003609141037091F4
:101000004203480F591F611D711D4C155D056E058A
:101010007F05D8F5109243034ACF80EE0E947E0FE1
:10102000DACF5D8151FF13C08E81803761F480EF8C
:101030000E947E0F80E00E94590F0E94360F10928E
:101040003E0381E0C9CF80ED0E947E0FFACF9D81E3
:1010500092FF13C0AE81A03761F480EF0E947E0F33
:1010600080E00E94590F10923E030E94360F82E0EA
:10107000B3CF80EB0E947E0FFACFBD81B3FFAECF1E
:1010800080E70E947E0F84E0A7CF80913E038823F3
:1010900009F40DCF0E94C1286B017C010E948B0FC7
:1010A0009C01A0E1BEE00E945E2A69837A838B8363
:1010B0009C836C157D058E059F0508F0F8CE109277
:1010C0003E0380EF0E947E0F109248030E94470F5C
:1010D000813009F0ECCE88E692E00E94C214E7CE9F
:1010E0000E945C0F882309F4E4CE0E94C31C8D8308
:1010F000882309F49CC080914A03811198C00E9402
:10110000750F811136C080913D03811156C00E9438
:10111000F2266093390370933A0380933B039093D4
:101120003C0381E080933D030E94B70F89838130A7
:1011300009F0BDCE0E948A1C882309F4AAC08091C0
:101140004A038111A6C00E94750F811194C080913D
:1011500038038111EDC00E94F2266093340370932E
:1011600035038093360390933703498140933803C6
:101170009ECE10923D0380E00E94B2288D81867041
:10118000D9F181E08093440310923D0380914403A0
:10119000813051F60E94C12869837A838B839C83B6
:1011A000693572408105910508F4BECF0E94B126D1
:1011B0001092440310924803B7CF8130E1F60E94A9
:1011C000F22669837A838B839C8380913903909183
:1011D0003A03A0913B03B0913C0388519C4FAF4F21
:1011E000BF4F29813A814B815C81281739074A0713
:1011F0005B0708F0C0CF98CF80914403811117C0DE
:1012000080E197E20E94C62781E0809344033D81FC
:1012100030FF05C083E080934A03809344034D81EF
:1012200043FF05C084E080934A0380934403809188
:101230003D03813009F0AACF0E94F22669837A83A8
:101240008B839C838091390390913A03A0913B0357
:10125000B0913C03885A944EAF4FBF4F29813A81D9
:101260004B815C8182179307A407B50708F08ECFE6
:1012700010923D0359CF10923803809133038111AE
:1012800008C081E0809333030E94B12688E08093F8
:101290004A03809138038130E9F40E94F226698381
:1012A0007A838B839C838091340390913503A09142
:1012B0003603B0913703805F984DAF4FBF4F298100
:1012C0003A814B815C8182179307A407B50710F41C
:1012D0001092380380913303882309F4E8CD0E94EB
:1012E000F22669837A838B839C8380913403909167
:1012F0003503A0913603B091370380529C46AB4F23
:10130000BF4F29813A814B815C8182179307A407E3
:10131000B50708F0CCCD109233030E94B12688ECBB
:1013200090E00E945A270E94B12610924803BFCD38
:10133000813009F0A2CF0E94F22669837A838B83E1
:101340009C838091340390913503A0913603B09132
:1013500037038C5C974FAF4FBF4F29813A814B8148
:101360005C81281739074A075B0708F086CF9FCDB5
:1013700026960FB6F894DEBF0FBECDBFDF91CF919A
:10138000FF90EF90DF90CF900895CF93DF9300D040
:1013900000D0CDB7DEB7809132038130F1F10E94E9
:1013A000122769837A838B839C8380912E0390918B
:1013B0002F03A0913003B0913103CC96A11DB11D34
:1013C00029813A814B815C8182179307A407B50775
:1013D00020F50E94122760932E0370932F038093B1
:1013E0003003909331030E94870D809346030E943F
:1013F000B7058093450390914603923434F091E011
:101400009093320395E090934A03823434F081E064
:101410008093320386E080934A030F900F900F90E1
:101420000F90DF91CF91089580934A0308959FB75D
:10143000F89480914A039FBF0895CF93DF9300D023
:10144000CDB7DEB72091B7063091B806211531052A
:1014500011F42DEB36E0CE010196821B930B0F9019
:101460000F90DF91CF910895CF93DF93CDB7DEB783
:101470002A970FB6F894DEBF0FBECDBF0E941D0A9B
:101480004AE0BE016F5F7F4F0E94DC2ECE010196C5
:101490000E945A232A960FB6F894DEBF0FBECDBF26
:1014A000DF91CF910895CF93DF9300D000D0CDB7D7
:1014B000DEB7809149038823A1F08130C9F482E02E
:1014C000809349030E943227DC01CB010A96A11DBB
:1014D000B11D80932A0390932B03A0932C03B09308
:1014E0002D030F900F900F900F90DF91CF910895E3
:1014F0008230B9F70E94322769837A838B839C8379
:1015000080912A0390912B03A0912C03B0912D037D
:1015100029813A814B815C8182179307A407B50723
:1015200000F75F9810924903DCCF813021F45F9A75
:101530008093490308955F98FBCF9FB7F8948091FB
:1015400049039FBF08959FB7F894809148039FBFB8
:1015500008959FB7F894809348039FBF08959FB75D
:10156000F894809147039FBF08959FB7F8948093A4
:1015700047039FBF08959FB7F894809146039FBF8C
:1015800008959FB7F894809145039FBF08952F92C7
:101590003F924F925F926F927F928F929F92AF9203
:1015A000BF92CF92DF92EF92FF920F931F93CF9350
:1015B000DF93CDB7DEB7C45AD1090FB6F894DEBFBA
:1015C0000FBECDBF6C0180E00E94F4190E9412276B
:1015D00020E831E541E050E00E94362A922E832E29
:1015E00020E13EE040E050E00E94362A322E232ED9
:1015F000CF55DF4F688379838A839B83C15AD0405C
:101600002CE330E040E050E00E94362A29012CE330
:10161000249DC001259D900D1124CF55DF4F0881D9
:101620001981C15AD040081B190B0E94341C9F938A
:101630008F9386ED90E09F938F93CE0101967C016E
:101640009F938F930E94092F5701A80EB91E1F93D5
:101650000F935F924F922F923F928F929F9286ECC0
:1016600090E09F938F93BF92AF920E94092F8501C4
:10167000080F191F0E94560F1F928F938CEB90E05A
:101680009F938F931F930F930E94092F080F191F89
:101690000E945C0F1F928F9384EB90E09F938F9337
:1016A0001F930F930E94092F080F191F0E94C10A50
:1016B000282F082E000C330B3F938F938AEA90E07B
:1016C0009F938F931F930F930E94092F080F191F49
:1016D0000FB6F894DEBF0FBECDBF0E946C0F1F92F5
:1016E0008F9382EA90E09F938F931F930F930E94B2
:1016F000092F080F191F0E94081C1F928F938AE957
:1017000090E09F938F931F930F930E94092F080FD0
:10171000191F0E940B1C9F938F9383E990E09F9366
:101720008F931F930F930E94092F080F191F0E9478
:101730003D1C1F928F9382E890E09F938F931F939D
:101740000F930E94092F080F191F0E94D506CF552D
:10175000DF4F688379838A839B83C15AD0400FB659
:10176000F894DEBF0FBECDBFCF55DF4F8881998182
:10177000AA81BB81C15AD040892B8A2B8B2B79F54A
:101780001F9281E08F9386E790E09F938F931F9342
:101790000F930E94092F0F900F900F900F900F90B2
:1017A0000F90B601C7010E94FC14CC55DF4F0FB655
:1017B000F894DEBF0FBECDBFDF91CF911F910F9187
:1017C000FF90EF90DF90CF90BF90AF909F908F9061
:1017D0007F906F905F904F903F902F9008950E9460
:1017E000431C1F928F9388E690E0CFCF9FB7F89469
:1017F000809144039FBF08959FB7F894809344035A
:101800009FBF0895282FE82FF92F80E09191892715
:1018100098E03CE8869508F483279A95D9F79E2F9F
:10182000921B961798F30895FC01A081B1818E91C7
:10183000928121E030E0A90101C0440F9A95EAF7B6
:10184000842B8C938FE797E00197F1F700C000009D
:10185000A081B1814E918281B90102C0660F771FCC
:101860008A95E2F7CB01809584238C938FE391E0F6
:101870000197F1F700C00000A081B18112978C910F
:10188000928101C0220F9A95EAF78223EFE3F6E0F6
:101890003197F1F700C0000008950F931F93CF9385
:1018A000DF93FC0128E030E041E0A1E0B0E0C0813E
:1018B000D1818A9192818D0101C0000F9A95EAF73A
:1018C000802B8883862F8423E9F000E50A95F1F7C1
:1018D000C081D1815A9182818D0102C0000F111FF8
:1018E0008A95E2F7C80180958523888310EF1A95C1
:1018F000F1F7440F21503109D1F6DF91CF911F91BB
:101900000F9108958FEE90E00197F1F700C000006D
:10191000C081D1815A9182818D0102C0000F111FB7
:101920008A95E2F7C801809585238883E2CF0F93DB
:101930001F93CF93DF93FC0148E050E091E080E0FB
:1019400061E070E0A081B1812E913281EB0101C094
:10195000CC0F3A95EAF72C2B2C9315E11A95F1F759
:101960000000A081B181CE9122818B0102C0000FC5
:10197000111F2A95E2F7980120952C232C931AE247
:101980001A95F1F700C0A081B18112972C9130E037
:10199000A28102C035952795AA95E2F720FD0FC0D8
:1019A000AFEBB0E01197F1F700C00000990F415084
:1019B000510941F6DF91CF911F910F910895AFEB3F
:1019C000B0E01197F1F700C00000892BEFCFCF9264
:1019D000DF92EF92FF920F931F93CF93C6E085E2C1
:1019E000E82EF12C96E5C92E93E0D92EF0924C0307
:1019F000E0924B0310924D032898E0914B03F09135
:101A00004C0382918E7F80838BE493E00E94140CC0
:101A100081116FC063E38BE493E00E944D0C0EE4F0
:101A200013E08BE493E00E94970CF80181938F01FF
:101A3000CE16DF06B1F767E08EE493E00E94020C59
:101A400090915503891355C080914E03803109F45C
:101A50004BC0883209F04DC081E090E09093600364
:101A600080935F038FE180935A0382EE90E00E949F
:101A7000692380915F0390916003019719F48FE1CE
:101A800080935A038BE493E00E94140C6CEC8BE47B
:101A900093E00E944D0C6EE48BE493E00E944D0CA9
:101AA000609158038BE493E00E944D0C60915903C0
:101AB0008BE493E00E944D0C80915F039091600352
:101AC0000197E9F460915A038BE493E0CF911F9161
:101AD0000F91FF90EF90DF90CF900C944D0C88EE1B
:101AE00093E00E945A2782CF1092600310925F0306
:101AF000BCCF8AEF90E00E946923C15081F7CF915B
:101B00001F910F91FF90EF90DF90CF900895FF927B
:101B10000F931F93CF93DF9300D000D000D0CDB7A9
:101B2000DEB724E029838BE493E00E94140C6CEC74
:101B30008BE493E00E944D0C64E48BE493E00E94FC
:101B40004D0C80915A038F3309F452C08F3509F43C
:101B500057C08F3109F05CC03FEF46E954E0315087
:101B600040405040E1F700C000008BE493E00E9449
:101B7000140C6CEC8BE493E00E944D0C6EEB8BE448
:101B800093E00E944D0C06E513E08BE493E00E9485
:101B9000970CD8018D938D01B3E00F351B07A9F782
:101BA00068E086E593E00E94020C90915E03891341
:101BB00037C0809156039091570311E097FD1FEFB6
:101BC00020915F0330916003232B09F03EC09C01FC
:101BD000990F440B550B29833A834B835C83CA01CD
:101BE000B9010E94A52A20E030E040E05FE357C041
:101BF0008FEF9DE2A9E081509040A040E1F7B3CF84
:101C0000BFE7EFE4F2E1B150E040F040E1F7ABCFE5
:101C10002FEF3EE944E2215030404040E1F7A3CFAE
:101C20000E94E70CE981E150E983E1117CCF60E09B
:101C3000862F26960FB6F894DEBF0FBECDBFDF917C
:101C4000CF911F910F91FF90089520915A032F3546
:101C500009F44EC0C8F52F3109F468C02F3339F7A5
:101C600097FF03C0919581959109959587959595D5
:101C70008795AC0114039001159F300D1124C90103
:101C8000330FAA0BBB0B89839A83AB83BC83BC0144
:101C9000CD010E94A52A20E030E040E85EE36983A0
:101CA0007A838B839C8369817A818B819C810E945A
:101CB000092B69837A838B839C8369817A818B81E9
:101CC0009C810E946D2AB4CF2F3709F0B0CF9C01C0
:101CD000990F440B550B29833A834B835C83CA01CC
:101CE000B9010E94A52A20E030E040E85DE3D7CFAB
:101CF00097FF03C091958195910995958795AC01C2
:101D000014039001159F300D1124C901330FAA0B44
:101D1000BB0B89839A83AB83BC83BC01CD010E943A
:101D2000A52A20E030E040E05EE3B9CF97FF03C092
:101D30009195819591099C01990F440B550B29832D
:101D40003A834B835C83CA01B9010E94A52A20E033
:101D500030E040E05EE369837A838B839C83698112
:101D60007A818B819C810E94092BF62E072F8E830E
:101D70009D83812F110F990BAA0BBB0B89839A832B
:101D8000AB83BC83BC01CD010E94A52A9B01AC01A1
:101D9000F9820A839E819B83AD81AC8369817A81BC
:101DA0008B819C810E94092B1ECF0E94C1286093C9
:101DB00061037093620380936303909364034EE521
:101DC00050E070E060E081E693E00C94F131CF9355
:101DD000C82F4EE550E070E060E081E693E00E949D
:101DE000BF318091BB038B3AC1F1E1E6F3E08EE5B0
:101DF000DF011D928A95E9F78DE291E00E94692347
:101E000083E090E090936703809366038CE390E017
:101E1000909369038093680381E080936A0392E062
:101E200090936B038093B90380EF8093BA0388E5A6
:101E30009BE190936F0380936E0385E080936C0326
:101E40008BEA8093BB034DE050E06FE171E081E7E6
:101E500093E00E94422E0E94D50ECC2329F080915F
:101E60006103CF910C94B228CF9108954EE550E0D4
:101E700070E060E081E693E00C94CF318093BD0385
:101E800008958091BD0308958093BE0308958091C5
:101E9000BE03089580916A03089580936A030895AC
:101EA00080916B03089580936B0308958091B7032D
:101EB00008958093B70308958091B803089580939F
:101EC000B80308952EE0829FC00111248F589C4FC3
:101ED0000895809365030895809165030895E1E670
:101EE000F3E084818F5F848308958091BC0308951B
:101EF0008093BC0308958091BA0308958093BA0338
:101F0000089580916E0390916F03089590936F03ED
:101F100080936E03089580916803909169030895FA
:101F2000909369038093680308958091B90308959D
:101F30008093B90308958091660390916703089593
:101F4000909367038093660308958091BB0308957F
:101F50008093BB030895809170030895809370036C
:101F6000089580916C03089580936C030895809187
:101F70006D03089580936D030895982F80ED890F68
:101F80008A3070F08FEB890F863018F489EC890F56
:101F900008958FE9890F863010F489EAF8CF80E040
:101FA0000895CF93DF9300D000D0CDB7DEB70E9465
:101FB000122769837A838B839C838091C7039091D6
:101FC000C803A091C903B091CA0329813A814B810A
:101FD0005C81281B390B4A0B5B0BDA01C9010B979B
:101FE000A105B10540F08091C603882321F08093BC
:101FF000E5031092C6030E943729811109C090E0C1
:1020000080E00F900F900F900F90DF91CF91089587
:102010000E9412276093C7037093C8038093C9037B
:102020009093CA030E942C299091C6039923E1F052
:10203000933029F72091C4033091C503F901E8508A
:10204000FC4F8083A9014F5F5F4F5093C5034093BE
:10205000C403403491E0590710F11092C503109267
:10206000C4031092C603CBCF882349F28D3039F2D6
:102070008A3029F28093F80321E030E03093C503E1
:102080002093C40393E09093C6038E3309F0B7CF37
:102090001092F9031092C60388EF93E0B2CF42305A
:1020A000510508F4ACCFF901E950FC4F90819D3007
:1020B00009F0A5CF8A3009F0A2CF1082EBCF0F93A1
:1020C0001F93FB01BC016E1B7F0B021B110B609F5A
:1020D000C001619F900D709F900D1124BA016E1B7D
:1020E0007F0B0E94222A822F860F1F910F91089545
:1020F000CF93DF930E94D10FEC0180E0209751F045
:1021000060E572E0CE010E944B2E892B31F081E018
:102110008093E803DF91CF91089569E472E0CE01E6
:102120000E944B2E892BE9F06BE270E0CE010696FF
:102130000E94902ED82FC92F61E00E94E11D8823B4
:1021400061F081E08093E7038DE0ED2FFC2FAAEE94
:10215000B3E001900D928A95E1F781E08093E60368
:10216000D9CF62E472E0CE010E944B2E892BA1F000
:10217000EF818E2F0E2E000C990BC0970A9760F4FA
:10218000E053E73048F40E2E000CFF0BEA59FD4CEB
:102190000C94582A0E947B1181E0BCCF84EF91E01F
:1021A0000E945A2781E00E94590F81E00E94B50ADF
:1021B0000E94360F8EE892E00E940A12EDCF84EF63
:1021C00091E00E945A2780E00E94590F8CEA92E029
:1021D0000E940A120E94360F81E00E94B50ADCCFED
:1021E00084EF91E00E945A2786EB92E00E940A1247
:1021F00080ED97E00E945A270E947B1188EC90E0C6
:102200000E945A278AEE93E00E94C70AC5CF87EC46
:1022100092E00E940A1280ED97E00E945A2781E026
:102220000E94950AB9CF8DEB92E00E940A1280EDD0
:1022300097E00E945A2780E0F3CF83EC92E00E945F
:102240000A1280ED97E00E945A2781E00E945F0FFA
:1022500080E00E94590F0E94360F9ECFCF92DF92EE
:10226000EF92FF921F93CF93DF9300D000D000D066
:10227000CDB7DEB77C016E83172F0E94F226DC01FA
:10228000CB018E0D9F1DA11DB11D6C017D010E9412
:1022900078108D83882391F06E81712F88EF93E001
:1022A0000E949B2E892B21F56DE373E088EF93E06C
:1022B0000E944B2E892B59F31D820BC00E94F226DF
:1022C000C616D706E806F90610F783E493E00E94E5
:1022D00069238D8126960FB6F894DEBF0FBECDBF61
:1022E000DF91CF911F91FF90EF90DF90CF900895F5
:1022F00091E09D83EECFCF93C5E00E94732984EED9
:1023000092E00E9460296CEC72E080ED97E00E9400
:102310002E11811102C0C15011F4CF91089588ECA3
:1023200090E00E945A27E9CFCF92DF92EF92FF927E
:10233000CF93DF9300D000D00F92CDB7DEB77C01F2
:102340000E94F226DC01CB018E0D9F1DA11DB11D47
:102350006C017D010E9478108D83882319F091E033
:102360009D830BC00E94F226C616D706E806F90622
:1023700088F78BEF92E00E9469238D810F900F9078
:102380000F900F900F90DF91CF91FF90EF90DF9023
:10239000CF900895CF93C5E00E94732981EF92E01A
:1023A0000E94602980ED97E00E949411882359F1E2
:1023B0006AEE72E088EF93E00E944B2E892B19F1B0
:1023C0006CE270E088EF93E00E94902E0097D9F0C5
:1023D0006CE270E001960E94902EFC01892B99F02E
:1023E000E1818E2F0E2E000C990BC0970A9758F49E
:1023F000E053C0E0E83020F4F0E0E45FFE4FC0813D
:102400008C2FCF910895C150D9F384E690E00E94BB
:102410005A27C2CFCF93DF93D82FC92F0E94732999
:1024200081E393E00E94602988EE93E00E9494117A
:102430008823E9F00E9473298DE193E00E946029CE
:102440008D2F9C2F0E944D2980E193E00E946029EE
:1024500080E30E9459298DE093E00E9460296CEC92
:1024600072E080ED97E0DF91CF910C942E11DF9117
:10247000CF910895CF92DF92EF92FF92CF93DF93A7
:1024800000D000D0CDB7DEB77C010E94F226DC017F
:10249000CB018E0D9F1DA11DB11D6C017D010E9400
:1024A0007810882369F08091F8038E33E1F065E7B6
:1024B00072E088EF93E00E944B2E892B81F307C0D6
:1024C0000E94F226C616D706E806F90640F780E015
:1024D0000F900F900F900F90DF91CF91FF90EF90A2
:1024E000DF90CF90089581E0F3CF1F93CF93DF93D8
:1024F000D82F192F7F936F9386E692E09F938F9347
:1025000088EF93E09F938F930E94092F0F900F9075
:102510000F900F900F900F90CAE00E94732988EFE0
:1025200093E00E944D2988EB9BE00E943A12882399
:10253000D9F00E9473298D2F912F0E944D2984E19B
:1025400090E00E945A278AE10E9459296CEC72E0BF
:1025500080ED97E00E942E11813031F480930201CA
:10256000DF91CF911F910895C150D1F38CE291E09A
:102570000E945A27D2CFCF92DF92EF92FF92CF9351
:10258000DF9300D000D0CDB7DEB70E94F2266B01FA
:102590007C0180EDC80E87E0D81EE11CF11C88ECA0
:1025A00090E00E945A270E94732982EC92E00E94D8
:1025B00060290E947810882351F16BEB72E088EF5C
:1025C00093E00E944B2E0097A1F36CE270E00E9412
:1025D000902E009771F34AE050E070E060E00196C1
:1025E0000E94C62CDC01CB018B7F0197A105B105B0
:1025F000B9F481E08093E9030F900F900F900F9052
:10260000DF91CF91FF90EF90DF90CF9008950E94DF
:10261000F226C616D706E806F90658F680E0ECCF93
:102620001092E903FBCFFF920F931F93CF93DF9399
:10263000182FD92FF62E072F8091D8039091D90308
:1026400018161906BCF481E08093D40384E690E068
:102650000E945A270E94BB1281110EC06F2D702F4D
:10266000812F9D2F0E9475121092D40384E690E072
:102670000E945A27C0E042C088EC90E00E945A278E
:102680000F93FF9287E592E09F938F9388EF93E0FB
:102690009F938F930E94092F0E94732988EF93E0E4
:1026A0000E944D2988EE93E00E943A120F900F90FD
:1026B0000F900F900F900F90882381F2812F9D2F04
:1026C0000E94602984E690E00E945A278AE10E94D5
:1026D00059296FEC72E080E69AEE0E942E11C82F05
:1026E000811106C06F2D702F812F9D2F0E947512B2
:1026F0001092D40384E690E00E945A278C2FDF9139
:10270000CF911F910F91FF900895BF92CF92DF92CA
:10271000EF92FF920F931F93CF93DF9300D000D0DF
:102720000F92CDB7DEB789839D83062FB72E0E9407
:102730007B118091D8039091D903181619060CF0DB
:10274000DDC08091E903882309F4D8C010E083EF4D
:10275000E82E83E0F82E98EFC92E93E0D92E88EE6C
:1027600093E00E945A271F5F8D818F9399819F93D9
:10277000FF92EF92DF92CF920E94092F0E9473295D
:1027800088EF93E00E944D296CEC72E080ED97E0B9
:102790000E942E110F900F900F900F900F900F909E
:1027A000882309F4A8C088EC90E00E945A270E9470
:1027B000CA11853009F449C088EC90E00E945A277C
:1027C0000E94CA11863009F447C088EC90E00E944C
:1027D0005A270E94CA11823009F053C084EF91E059
:1027E0000E945A27802F9B2D0E940A1288EB9BE0A3
:1027F0000E945A27802F9B2D0E940A1288EB9BE093
:102800000E945A270E94122769837A838B839C83B4
:102810006B017C01A8E2CA0ED11CE11CF11C0E94D4
:10282000CA118230F1F00E947B1181E00F900F906D
:102830000F900F900F90DF91CF911F910F91FF900C
:10284000EF90DF90CF90BF90089584EF91E0ADCFEF
:1028500088EE93E00E945A270E94CA118630C1F385
:10286000B4CF0E94122769837A838B839C836C1573
:102870007D058E059F05B8F680ED97E00E945A27EA
:10288000CECF1330C1F50E94170A833051F469810D
:102890007D818EED93E00E94131380E00E94140A64
:1028A0005ECF843029F469817D8186EC93E0F3CF9B
:1028B000823029F469817D818EEA93E0ECCF873004
:1028C00029F469817D818EE993E0E5CF853029F493
:1028D00069817D8188E893E0DECF863029F46981C3
:1028E0007D8182E693E0D7CF8130B9F669817D8121
:1028F00080E593E0D0CF143009F031CF80E096CF5F
:102900001F93CF93DF93D82F192F8091D8039091E5
:10291000D9031816190694F581E08093D40384E650
:1029200090E00E945A27C0E08C2F0E94620FFC01A9
:1029300080818B3299F4C53089F0CC2321F088EE68
:1029400093E00E945A278C2F0E94620F6D2F712FE7
:102950000E9485138091D703813071F41092D403C3
:1029600084E690E00E945A271092D70380E0DF911E
:10297000CF911F910C94140ACF5FD6CFDF91CF91E6
:102980001F9108951F93CF93DF93D82F192F809114
:10299000D8039091D9031816190654F581E0809355
:1029A000D40384E690E00E945A27C0E08C2F0E9456
:1029B000620FFC0180818B3211F4C53049F4109212
:1029C000D40384E690E0DF91CF911F910C945A27B5
:1029D000CC2321F088EE93E00E945A278C2F0E948E
:1029E000620FBC018D2F912F0E941313CF5FDECF9A
:1029F000DF91CF911F910895FF920F931F93CF9373
:102A0000DF93182FD92FF62E072F8091D80390919E
:102A1000D903181619061CF581E08093D40384E6C7
:102A200090E00E945A270E94BB1281111AC0809127
:102A3000E3039091E4038F3F980729F00196909368
:102A4000E4038093E3036F2D702F812F9D2F0E944D
:102A500075121092D40384E690E00E945A27C0E0D9
:102A600042C088EC90E00E945A270F93FF928BE7B8
:102A700092E09F938F9388EF93E09F938F930E94B0
:102A8000092F0E94732988EF93E00E944D2988EE58
:102A900093E00E943A120F900F900F900F900F90BA
:102AA0000F90882381F2812F9D2F0E944D2984E66B
:102AB00090E00E945A278AE10E9459296FEC72E047
:102AC00080E69AEE0E942E11C82F811106C06F2D4C
:102AD000702F812F9D2F0E9475121092D40384E6CF
:102AE00090E00E945A278C2FDF91CF911F910F9178
:102AF000FF900895FC0180818B3299F49F012F5F34
:102B00003F4F3D96D9018C912F5F3F4F082E000C0F
:102B1000990BC0970A9728F4E217F30799F781E019
:102B2000089580E00895CF9381E08093D40384E6F4
:102B300090E00E945A2784E690E00E945A270E9463
:102B4000732989E092E00E9460296CEC72E088EAC7
:102B500091E60E942E11C82F1092D40384E690E0D3
:102B60000E945A278C2FCF9108958F929F92AF92F7
:102B7000BF92CF92DF92EF92FF920F931F93CF936A
:102B8000DF9300D000D00F92CDB7DEB71091E803ED
:102B9000112309F469C081E08093D40384E690E0B6
:102BA0000E945A270E9473298BE292E00E946029BA
:102BB00066ED72E088E893E10E942E11813009F001
:102BC00072C06AE370E088EF93E00E94902E9C014F
:102BD000009771F3AC014F5F5F4F2A5F3F4F5A017F
:102BE0004F5F5F4FD5018C91082E000C990BC09759
:102BF0000A9708F464C02417350789F7D9CF88EFFE
:102C000093E00E94E71D03E08EE1A82E82E0B82E3B
:102C100098EF892E93E0992E84E690E00E945A273F
:102C2000DF92CF92BF92AF929F928F920E94092F14
:102C30000E94732988EF93E00E944D296CEC72E0AA
:102C400080E197E20E942E110F900F900F900F904D
:102C50000F900F90813011F00150F1F61092D403D3
:102C600084E690E00E945A27812F0F900F900F90DA
:102C70000F900F90DF91CF911F910F91FF90EF90E8
:102C8000DF90CF90BF90AF909F908F9008950E945B
:102C900093151092E8031092D40384E690E00E940A
:102CA0005A2711E0E1CF0E9493151092E803109289
:102CB000D40384E690E00E945A2710E0D5CF4AE082
:102CC00050E070E060E0C5010E94C62C6B017C0101
:102CD000C114D104F1E0EF06F10408F069CF6CE211
:102CE00070E0C5010E94902E009709F461CF6CE25C
:102CF00070E00E94902E009709F45ACF6BE270E0CA
:102D00000E94902E5C01009779F00E947A1588232A
:102D100009F44ECF8DE0F501AAEEB3E001900D92DB
:102D20008A95E1F71092F70388E893E10E949411E5
:102D3000182F813009F0ABCF0E94F2264B015C01C5
:102D4000B8EE8B0EB3E09B1EA11CB11C0E94F226B4
:102D50006A837B838C839D83681579058A059B052F
:102D600008F44DCF0E943729882381F30E942C2933
:102D70008983898189830E94F2264B015C01E8EEF8
:102D80008E0EE3E09E1EA11CB11CE0CFCF93DF931B
:102D900000D000D0CDB7DEB78091E603882309F4D8
:102DA00073C01092E60381E08093D40384E690E040
:102DB0000E945A278091E70381110EC00E947B1167
:102DC0001092D40384E690E00F900F900F900F9034
:102DD000DF91CF910C945A270E94732983E092E0EF
:102DE0000E9460296CEC72E080ED97E00E942E1149
:102DF000882331F30E94560F813009F042C08EE8DB
:102E000092E00E940A1280ED97E00E945A278DED11
:102E100092E00E940A121092E7030E94122769832F
:102E20007A838B839C83DC01CB01CC96A11DB11DE1
:102E30008093C0039093C103A093C203B093C303D4
:102E40000E94CA11823009F0B9CF88EB9BE00E9442
:102E50005A270E94122769837A838B839C838091EF
:102E6000C0039091C103A091C203B091C303298113
:102E70003A814B815C8182179307A407B50700F75D
:102E80009DCF8CEA92E0BDCF0F900F900F900F90E6
:102E9000DF91CF910895CF92DF92EF92FF92CF937F
:102EA000DF9300D000D0CDB7DEB70E9412276B01B0
:102EB0007C0188E5C80E82E0D81EE11CF11C0E944E
:102EC00073298EEF91E00E9460296CEC72E088EE2D
:102ED00093E00E942E1181110FC00E941227C61686
:102EE000D706E806F90618F481E00E94FC1788EE80
:102EF00093E00E945A27E3CF88E893E10E945A2783
:102F00000E94732987EF91E00E9460296CEC72E0C7
:102F100088EE93E00E942E11882389F284EF91E0DD
:102F20000E945A270E9473298BEE91E00E9460292B
:102F30006CEC72E088EE93E00E942E11882309F475
:102F4000BECF84EF91E00E945A270E94732987ED3B
:102F500091E00E9460296CEC72E088EB9BE00E949B
:102F60002E11882309F4ABCF84EF91E00E945A27F9
:102F70000E9473298BEC91E00E9460296CEC72E056
:102F800088EE93E00E942E11882309F498CF88EBF5
:102F90009BE00E945A270E94732982EB91E00E94D5
:102FA00060296CEC72E088EB9BE00E942E11882374
:102FB00009F485CF84EF91E00E945A270E9473297B
:102FC0008FE991E00E9460296CEC72E080ED97E05F
:102FD0000E942E118983882309F471CF0E94BB12AD
:102FE00089810F900F900F900F90DF91CF91FF90FC
:102FF000EF90DF90CF900895CF93C82F0E946C0F71
:103000008E3FB0F40E946F0F0E94360F82E08093D3
:10301000D40384E690E00E945A275C9885E00E94E1
:103020008F275C9A0E944B17C13031F4F894FFCF80
:1030300080E00E94690FE8CFCF910895CF92DF9290
:10304000EF92FF920F931F93CF93DF9300D000D0A6
:10305000CDB7DEB70E94122769837A838B839C8366
:103060008091D0039091D103A091D203B091D3036A
:1030700029813A814B815C8182179307A407B507A8
:1030800078F0198289810F900F900F900F90DF9147
:10309000CF911F910F91FF90EF90DF90CF90089507
:1030A00082E390E00E945A270E9473298CED92E0FF
:1030B0000E94602962EE72E080ED97E00E942E117E
:1030C000811122C060E06093D6030E941227DC01C8
:1030D000CB018C549F4FAF4FBF4F8093D003909341
:1030E000D103A093D203B093D3030E94D506698382
:1030F0007A838B839C836B3071058105910508F47D
:1031000074C035E0398332C06AE370E088EF93E041
:103110000E94902EFC01892BA9F28281082E000CBE
:10312000990BC0970A9770F64AE050E070E060E0B3
:10313000CF0102960E94C62C462F572FBC01403269
:1031400051056105710508F0BDCF4250510924E6D3
:10315000249FC001259F900D11246DE170E00E9415
:10316000222AB1CF84E690E00E945A270E94732958
:1031700083ED92E00E94602980ED97E00E94941117
:10318000882309F442C06DEC72E088EF93E00E945E
:103190004B2E0097D1F16AE370E00E94902E0097C9
:1031A000A1F16CE270E00E94902EFC01892B69F184
:1031B0008181082E000C990BC0970A9730F54AE0E0
:1031C00050E070E060E0CF0101960E94C62C362FDF
:1031D000462F572FBC014F3F51056105710509F07E
:1031E000A0F43093D5033931C8F00E94BB1281118D
:1031F0001AC08091CF038F5F8093CF0385300CF48A
:1032000040CF80E00E94FC173CCF49814150498368
:103210004111A8CF8FEF8093D503E7CF88EE92E0DE
:103220000E94C214E2CF1092CF030E94122769833A
:103230007A838B839C83DC01CB018C549F4FAF4FEF
:10324000BF4F8093D0039093D103A093D203B09348
:10325000D30380910201882309F4C0C08091D80370
:103260009091D903181619060CF0BBC081E0809329
:10327000D40384E690E00E945A2784E690E00E94FE
:103280005A270E94732984EA92E00E94602966ED21
:1032900072E088E893E10E942E118983813009F061
:1032A0009AC06AE370E088EF93E00E94902E9C0140
:1032B000892B91F02F5F3F4F90E0F9012F5F3F4F37
:1032C0004081042E000C550B405351094A305105E2
:1032D00060F09F5F963089F7109202011092D4033C
:1032E00084E690E00E945A27CDCE9530A9F34AE0BB
:1032F00050E070E060E0CF010E94C62C6B017C01C1
:10330000C114D10451E0E506F10448F01092D40351
:1033100084E690E00E945A2781E08983B3CE8B0136
:103320006B30710508F453C00E949315DF92CF9261
:1033300087E992E09F938F9388EF93E09F938F9319
:103340000E94092F0E94732988EF93E00E944D2963
:1033500067EF72E080E69AEE0E942E110F900F90B8
:103360000F900F900F900F90813081F693E099832A
:103370008AE8E82E82E0F82E98EFC92E93E0D92E45
:1033800084E690E00E945A271F930F93FF92EF92DA
:10339000DF92CF920E94092F0E94732988EF93E059
:1033A0000E944D296CEC72E080E797E10E942E119B
:1033B0000F900F900F900F900F900F90813009F4A5
:1033C000A5CFA981A150A983A111DACF9FCF672BE7
:1033D00009F482CFABCF1092020198CFB1E0B9834C
:1033E00051CE21E029834ECE2F923F924F925F9291
:1033F0006F927F928F929F92AF92BF92CF92DF9205
:10340000EF92FF920F931F93CF93DF93CDB7DEB769
:10341000C256D1090FB6F894DEBF0FBECDBFA3963A
:103420008FAFA39781E08093D40384E690E00E945D
:103430005A2710E00E9473298BE891E00E946029CE
:103440006CEC72E088E59BE10E942E11882371F1FB
:103450000E9412272B013C018EE1480E511C611C79
:10346000711C8EE791E00E946923133011F15E0117
:1034700091E6A90EB11C31ED932E40ED842E0E94F1
:103480001227A2966CAF7DAF8EAF9FAFA297641547
:10349000750586059705A8F043E050E06AE571E000
:1034A0008EC084EF91E00E945A27C4CF1F5F143072
:1034B000C1F71092D40384E690E00E945A2780E07E
:1034C000D1C00E94D10F8C010097C9F267E771E06B
:1034D0000E944B2E892B99F262E270E0C801069699
:1034E0000E94902E8C01892B51F20F5F1F4F8CE5AB
:1034F000F801DE01119601900D928A95E1F7DE0147
:1035000011966D01F12CE12CF60180810E94BD0F16
:10351000282ED60111968C910E94BD0F229490EF17
:103520002922280EF60182810E94BD0F382ED60175
:1035300013968C910E94BD0F329420EF3222830D9E
:10354000D801AE0DBF1DF701319621103DC08C93FF
:103550007F01E4E0CE0ED11CAC14BD04A9F6F80145
:10356000EE0DFF1D108260E270E0C8010E94902EF7
:10357000009709F484CF60E270E001960E94902EDB
:103580008C01892B09F47BCF0F5F1F4FF80101904D
:103590000020E9F73197E01BF10B80E0482F50E065
:1035A0004E175F0730F4D801A40FB51F9C919032DD
:1035B00029F5883028F143E050E063E771E08AEDB7
:1035C00093E00E94422E75CFE00FF11F92E0E90ECA
:1035D000F11C813021F48C92A1E8A083BACF81350F
:1035E00021F49C92B1E9B083B4CF803420F48C9262
:1035F00080588083AECF9C92805CFBCF8F5FCECF14
:10360000B8018AED93E00E94772E6FE372E0C80163
:103610000E94652E8C0143E050E06FE671E0892B3B
:1036200071F28AED93E00E945A23C8010E940E2E87
:103630009093D9038093D803181619060CF039CF4C
:103640000A974CF4A396FFADA397F13021F48EE5D1
:1036500091E00E94C2141092D40384E690E00E948C
:103660005A2781E0CE59DF4F0FB6F894DEBF0FBE68
:10367000CDBFDF91CF911F910F91FF90EF90DF9021
:10368000CF90BF90AF909F908F907F906F905F9002
:103690004F903F902F900895CF93DF9300D000D0AC
:1036A000CDB7DEB70E94322769837A838B839C83F0
:1036B0008091CB039091CC03A091CD03B091CE0328
:1036C00080569A4FAF4FBF4F29813A814B815C8121
:1036D00082179307A407B507C0F481E00E94F4198C
:1036E00081111AC08091CB039091CC03A091CD039E
:1036F000B091CE03CC96A11DB11D8093CB039093C6
:10370000CC03A093CD03B093CE030F900F900F90F6
:103710000F90DF91CF9108950E9432276093CB03E1
:103720007093CC038093CD039093CE03EECFCF92D2
:10373000DF92EF92FF921F93CF93DF9300D000D0E0
:103740000F92CDB7DEB78D83192F0E9412276983A0
:103750007A838B839C836B017C0184E1C80ED11C2E
:10376000E11CF11C81E08093D40384E690E00E9488
:103770005A2719820E9473298EE491E00E946029E1
:103780008D81912F0E944D2986E491E00E9460294D
:103790006CEC72E080ED97E00E942E1181111CC04C
:1037A00099819F5F9983963091F41092D40384E6B7
:1037B00090E00F900F900F900F900F90DF91CF91AE
:1037C0001F91FF90EF90DF90CF900C945A278CE2DE
:1037D00091E00E945A27CECFA981A53031F30E94F3
:1037E000122769837A838B839C836C157D058E05F4
:1037F0009F05D8F60E94D10F009789F36EE371E020
:103800000E944B2E892B59F380E00E94F419CDCFF2
:103810008091E50308952FB7F8948091E303909188
:10382000E4032FBF08952FB7F8948093E303909398
:10383000E4032FBF08958091E903813011F42B9A9E
:10384000089581110DC08091BF038F5F8093BF03E6
:10385000833330F085B198E0892785B91092BF0392
:1038600008958AEE93E008958AED93E008959FB756
:10387000F8948091E9039FBF08959FB7F8948091D1
:10388000D6039FBF08959FB7F8948091D5039FBF3B
:1038900008959FB7F8948091D4039FBF0895549AD8
:1038A0005C98559A5D98569A5E98579A5F983898A2
:1038B000409A3998419A3A98429A3B98439A22986A
:1038C0002A98259A2D98239A2B983C98449A3D98AB
:1038D000459A089580913D051A9B0FC081110DC036
:1038E00080913C058F5F80933C05833040F081E000
:1038F00080933E0582E080933D0510923C058091C7
:103900003D05882321F0815080933D050895109254
:103910003E05089580913E0508951F93CF93DF9350
:10392000C6B10E947B0FD82F16B10E947B0FC12316
:10393000C295C07FCD238C23982F9595959595950D
:103940009595882381F080913B0581110CC0809171
:103950003A058F5F80933A05833038F090933F05A6
:1039600082E080933B0510923A0580913B058823C5
:1039700039F0815080933B05DF91CF911F910895DD
:1039800010923F05F9CF80913F0510923F050895B1
:1039900083B18695817091E089270895349B24C076
:1039A00035996CC08FEF9FEF0E94E9280E945C0F51
:1039B00090913905882309F466C09F300CF465C0E6
:1039C00080913805811170C00E945F0F80E00E94D5
:1039D000590F80E00E94FC0B0E94360F81E080931B
:1039E00038050E94B50A27C00E94560F811107C0F2
:1039F000809139058F300CF58F5F809339050E94D7
:103A0000560F882391F1809139058F309CF1809178
:103A10003805811149C00E94590F80E00E945F0F54
:103A20008FEF9FEF0E94E92881E0809338050E9484
:103A3000B50A0E94360F0C94B12680913805811189
:103A4000DECF90E080E00E94E92880E00E945F0FD6
:103A500080EF0E947E0F81E0809338050E94B50AB6
:103A60000E94360F0E94B126CACF0E94F12801960B
:103A700051F608958F5F80933905089510923905A6
:103A80001092380508959F3024F49F5F9093390574
:103A9000089580913805811107C081E00E945F0F71
:103AA00080E00E94590FC0CF08951F93CF93DF93FA
:103AB000182FD92FC0E08C2F0E94620FFC0180814B
:103AC0008B3241F0CF5FC530B1F780E0DF91CF910D
:103AD0001F9108958C2F0E94620FBC014DE050E0B1
:103AE000812F9D2F0E946A2E892B61F781E0EECFF6
:103AF000AF92BF92DF92EF92FF920F931F93CF93FB
:103B0000DF938C017B01C42FD0E08D2F0E94620FC8
:103B1000FC011082DF5FD530C1F75801D12C0C2E8B
:103B2000000CDD0BC5010E947A15811122C097019E
:103B300080E08D112DC0C81BD1099EE09C9FA00183
:103B40009D9F500D112470E060E09701899F200D2A
:103B5000311D1124C9010E94892E81E0DF91CF918E
:103B60001F910F91FF90EF90DF90BF90AF900C945A
:103B7000AE0FD394DC161D0609F0CCF4F501858553
:103B80008B33A9F28C3299F4FEE0AF0EB11CCACF90
:103B90009DE0F801D90101900D929A95E1F7F901A4
:103BA0001586025F1F4F8F5F225F3F4FC2CFDF91AD
:103BB000CF911F910F91FF90EF90DF90BF90AF904A
:103BC0000895613011F40C94551D80E008952F92F2
:103BD0003F924F925F926F927F928F929F92AF929D
:103BE000BF92CF92DF92EF92FF920F931F93CF93EA
:103BF000DF93CDB7DEB7C25AD1090FB6F894DEBF56
:103C00000FBECDBF8C0144E050E061ED76E00E9434
:103C1000352E892B09F0EBC10E94311C0E94551DE5
:103C20000C5F1F4FF12C811157C00E94311CBC0149
:103C300083EC96E0CE55DF4F0FB6F894DEBF0FBE93
:103C4000CDBFDF91CF911F910F91FF90EF90DF904B
:103C5000CF90BF90AF909F908F907F906F905F902C
:103C60004F903F902F900C9413131A8309834CE0CC
:103C700050E068E975E0C8010E94352E892BD9F51E
:103C8000C8010C969A838983F8012485022E000CC2
:103C9000330B205331092A30310520F54AE050E03A
:103CA000BE016F5F7F4F0E94C62C382F292FCB019A
:103CB000A32FB22F8136FAEE9F07A105B10590F42C
:103CC000E981FA8120812B3369F40E94A00F0981D8
:103CD0001A810F5F1F4FF394F80180818111C5CFC6
:103CE000F1107DC180E00E94E70E0E94311CBC01F2
:103CF0008AEB96E09FCF4CE050E06BE875E0C8019E
:103D00000E94352E892B41F5C8010C969A83898330
:103D1000F8012485022E000C330B205331092A3080
:103D2000310500F74AE050E0BE016F5F7F4F0E940F
:103D3000C62C382F292FCB01A32FB22F8136FAEEB4
:103D40009F07A105B10570F6E981FA8120812B3327
:103D500049F60E94900FBBCF4EE050E06CE775E053
:103D6000C8010E94352E892B09F4BCCF46E050E0F3
:103D700065E775E0C8010E94352E892BF1F4F80142
:103D800086818033C1F0813309F0ACCFEE24E39417
:103D9000C80107969A838983F80187818B3309F0DC
:103DA000A1CF80E00E945F0F8E2D0E94590F80EFFF
:103DB0000E947E0F8CCFE12CEBCF4CE050E068E608
:103DC00075E0C8010E94352E892BD9F4F80184854D
:103DD0008033A9F0813309F085CFEE24E394C80144
:103DE0000D969A838983F80185858B3309F07ACF04
:103DF00080E00E94590F8E2D0E945F0FD8CFE12CDA
:103E0000EECF4AE050E06DE575E0C8010E94352E26
:103E1000892BB9F4F8018285803389F0813309F068
:103E200061CF81E09801255F3F4F3A832983F801F4
:103E300093859B3309F056CF0E94980F48CF80E0BE
:103E4000F1CF4DE050E06FE475E0C8010E94352EDF
:103E5000892BB9F4F8018585803389F0813309F025
:103E600041CF81E09801225F3F4F3A832983F801D7
:103E700096859B3309F036CF0E943E0F28CF80E015
:103E8000F1CF4DE050E063E475E0C8010E94352EAB
:103E9000892BB9F4F8018585803389F0813309F0E5
:103EA00021CF81E09801225F3F4F3A832983F801B7
:103EB00096859B3309F016CF0E94440F08CF80E00F
:103EC000F1CF43E150E06FE275E0C8010E94352E6A
:103ED000892BB9F4F8018389803389F0813309F0A3
:103EE00001CF81E098012C5E3F4F3A832983F8018E
:103EF00094899B3309F0F6CE0E944D0FE8CE80E006
:103F0000F1CF43E150E06CE175E0C8010E94352E2D
:103F1000892BB9F4F8018389803389F0813309F062
:103F2000E1CE81E098012C5E3F4F3A832983F8016E
:103F300094899B3309F0D6CE0E94530FC8CE80E0FF
:103F4000F1CF49E050E062E175E0C8010E94352EF2
:103F5000892BB9F4F8018185803389F0813309F028
:103F6000C1CE81E09801265F3F4F3A832983F80153
:103F700092859B3309F0B6CE0E94BA0FA8CE80E09E
:103F8000F1CF4DE050E063E075E0C8010E94352EAE
:103F9000892B09F0A7CEC8010D969A838983F80171
:103FA0002585022E000C330B205331092A303105B0
:103FB00008F098CE4AE050E0BE016F5F7F4F0E944C
:103FC000C62CCB0161327E4408F08CCEE981FA81A7
:103FD00020812B3309F086CE0E94860F78CE0E9476
:103FE000360F0E94311CBC0180EC96E023CE44E0E9
:103FF00050E065EB76E0C8010E94352E892B09F070
:1040000028C10E94311C0E94551D811106C00E94CA
:10401000311CBC0187EA96E00DCE0C5F1F4F198260
:10402000312CCE010196CF55DF4F99838883C15A39
:10403000D0408FE8482E84E0582E99EB692E94E00A
:10404000792E29EEC22E24E0D22E35EEA32E34E0B6
:10405000B32E43EE842E44E0942EF801808181112A
:1040600023C0332039F00E94311CBC01CE010196DF
:104070000E94FC14CE55DF4F0FB6F894DEBF0FBE82
:10408000CDBFDF91CF911F910F91FF90EF90DF9007
:10409000CF90BF90AF909F908F907F906F905F90E8
:1040A0004F903F902F900895CF55DF4FE881F981D1
:1040B000C15AD04001900020E9F7CF0101977C015F
:1040C0004CE050E066EF74E0C8010E94352E892B69
:1040D00009F03FC0045F1F4FDF92CF92FF92EF9233
:1040E0000E94092FE80EF91E0F900F900F900F906D
:1040F000212C822D0E94620FFC0180818B32D9F429
:10410000822D0E94620F9F938F93BF92AF92FF9276
:10411000EF920E94092FE80EF91E23940F900F9042
:104120000F900F900F900F90F5E02F12E2CF21E04B
:10413000E21AF10802C02110FACF9F928F92FF92EB
:10414000EF920E94092F0F900F900F900F903394D1
:1041500084CF4CE050E066ED74E0C8010E94352E3B
:10416000892B99F4045F1F4F0E949B0F9F938F939D
:104170007F926F92FF92EF920E94092F0F900F9003
:104180000F900F900F900F90E2CF4CE050E06CEA50
:1041900074E0C8010E94352E892B49F4045F1F4F3B
:1041A0000E948B0F9F938F935F924F92E3CF4AE0D1
:1041B00050E064E874E0C8010E94352E892B59F460
:1041C000065F1F4F0E94950F1F928F9386E794E022
:1041D0009F938F93CFCF4DE050E068E674E0C80125
:1041E0000E94352E892B49F4035F1F4F0E94410F17
:1041F0001F928F9387E594E0EBCF4DE050E06BE4A6
:1042000074E0C8010E94352E892B49F4035F1F4FCB
:104210000E94470F1F928F938CE394E0D9CF4DE01B
:1042200050E06DE274E0C8010E94352E892B49F4FC
:10423000035F1F4F0E94810F9F938F938BE194E048
:10424000C7CF0E94311CBC0181EA96E00E94131383
:1042500011CF4DE050E063E976E0C8010E94352EB1
:10426000892BA1F50E94311C0E94551D811106C0A9
:104270000E94311CBC0185E896E0DCCC80E00E9405
:10428000A80F0E94360F0E94311CBC0180E596E009
:104290000E94131381E0CE55DF4F0FB6F894DEBFB6
:1042A0000FBECDBFDF91CF911F910F91FF90EF9087
:1042B000DF90CF90BF90AF909F908F907F906F9046
:1042C0005F904F903F902F900C94FC1747E050E088
:1042D00068E476E0C8010E94352E892B91F40E9493
:1042E000311C0E94551D811106C00E94311CBC0169
:1042F0008AE396E09FCC0E94311CBC0182E296E0EA
:10430000C7CF45E050E06CE176E0C8010E94352E51
:10431000892B91F40E94311C0E94551D811106C009
:104320000E94311CBC018EE096E084CC0E94311CBE
:10433000BC0188E198E07ECC48E050E065E076E0A2
:10434000C8010E94352E892B91F40E94311C0E94D5
:10435000551D811106C00E94311CBC0187EF95E0FC
:1043600069CC0E94311CBC0187E797E063CC48E030
:1043700050E06EEE75E0C8010E94352E892B91F455
:104380000E94311C0E94551D811106C00E94311CE3
:10439000BC0180EE95E04ECC0E94311CBC0186ED44
:1043A00096E048CC47E050E068ED75E0C8010E9417
:1043B000352E892B49F50E94311C0E94551D811113
:1043C00006C00E94311CBC018AEC95E033CC0E94EF
:1043D000311CCE55DF4F0FB6F894DEBF0FBECDBFF8
:1043E000DF91CF911F910F91FF90EF90DF90CF90D1
:1043F000BF90AF909F908F907F906F905F904F9005
:104400003F902F900C94C70A4CE050E06DEB75E0A4
:10441000C8010E94352E892B21F50E94AB0F811116
:1044200014C080E00E94620FBC0145E0C8010C96F8
:104430000E94781D81E00E94AE0F0E94360F0E94FC
:10444000311CBC018AEB95E0F5CB0E94311C0E9427
:10445000551D813031F30E94311CBC018CEA95E07E
:10446000E9CB46E050E065EA75E0C8010E94352ED0
:10447000892B09F0FFCDF8018681803369F0813303
:1044800009F0F8CD81E0F80197819B3309F0F2CD76
:10449000813021F45F9AEECD80E0F5CF5F98EACDD0
:1044A00080E00E94620FBC0141E08EEF92E00E942A
:1044B000781D81E00C94AE0F1F921FB61F9211243D
:1044C0008F939F93EF93FF9380914905813019F566
:1044D000909148058FEF890F9130D9F4809145056F
:1044E0009091460580FF43C05B9A8091450590916D
:1044F000460596958795909346058093450580914E
:104500004705815080934705811102C010924905EB
:1045100083E08093480580914B05811120C08091F4
:104520004405882331F180914305815080934305F0
:10453000811115C01092440510924A05E0914D0575
:10454000F0E080914205E25BFA4F808380914D0557
:104550008F5F80934D05803210F010924D05FF91D2
:10456000EF919F918F911F901FBE1F9018955B98A0
:10457000BCCF80914A05811110C04A99F0CF81E0EB
:1045800080934A051092420594E09093430598E089
:104590009093410580934005E2CF909143058FEFC2
:1045A000890F9130B9F4809140054A9B05C09091E4
:1045B0004205982B90934205880F80934005809187
:1045C0004105815080934105811103C081E08093B2
:1045D000440583E080934305C2CF109249051092B1
:1045E0004A0510924B055B9A539A52989FB7F894DC
:1045F00084E48093B30082E08093B0008093B100A4
:10460000E0E7F0E08081826080831092B2009FBF7B
:10461000089510924B05089581E080934B0508950D
:1046200090914C0580914D059817E1F3E92FF0E04A
:10463000E25BFA4F80819F5F903218F490934C05B3
:10464000089510924C05089590914D0581E02091B8
:104650004C05291301C080E0089510924D05109279
:104660004C0508959091490581E0913009F080E072
:104670000895909149059130E1F393E090934805B6
:104680009AE090934705880F990B926090934605A6
:104690008093450581E0809349050895CF93DF938A
:1046A000EC018991811103C0DF91CF9108950E949F
:1046B0003923F7CFCF93DF93EC018991811106C0A5
:1046C0008DE093E0DF91CF910C944E230E9439232B
:1046D000F4CFCF93DF93EC01FE01849121968111F9
:1046E00006C08DE093E0DF91CF910C944E230E94A1
:1046F0003923F2CF8091030181110BC080916E05A7
:10470000811115C081E080936E0585EC98E00E94D0
:10471000C21480910301813051F480916E05813083
:1047200031F410926E0589EB98E00C94C214089550
:10473000282F8FEF615008F40895A22FB92F2D91E3
:10474000022E000C330B2827F901EC5EFE4F80810E
:104750002A2F9B2FEFCFEF92FF920F931F93CF93B0
:10476000DF93CDB7DEB7CC57D1090FB6F894DEBFD3
:104770000FBECDBF8BE2898385E58A838AE38B8375
:104780000E94341C9F938F9386E399E09F938F93AD
:104790008E010C5F1F4F1F930F930E94092F080F6C
:1047A000191F0E94560F1F928F9380E399E09F93E9
:1047B0008F931F930F930E94092F080F191F0E94B8
:1047C0005C0F1F928F9389E299E09F938F931F93C1
:1047D0000F930E94092F080F191F0E94C10A282F4A
:1047E000082E000C330B3F938F9382E299E09F9346
:1047F0008F931F930F930E94092F080F191F0E9478
:10480000BB0A282F082E000C330B3F938F938BE1AC
:1048100099E09F938F931F930F930E94092F080F86
:10482000191F0E946C0F1F928F9385E199E09F934F
:104830008F931F930F930E94092F080F191F0FB614
:10484000F894DEBF0FBECDBF0E943D1C1F928F9318
:104850008DE099E09F938F931F930F930E94092FF0
:10486000080F191F0E94371C1F928F9387E099E051
:104870009F938F931F930F930E94092F080F191F67
:104880000E94D506ED966CAF7DAF8EAF9FAFED97D2
:104890000FB6F894DEBF0FBECDBF672B682B692B18
:1048A00009F0A6C01F928EE68F9381E099E09F9356
:1048B0008F931F930F930E94092F080F191F0F90BA
:1048C0000F900F900F900F900F900E94A30A1F92CD
:1048D0008F9385EF98E09F938F931F930F930E9480
:1048E000092F080F191F0E949D0A1F928F938FEEA8
:1048F00098E09F938F931F930F930E94092F080FA7
:10490000191F0E94F9281F928F9389EE98E09F93B8
:104910008F931F930F930E94092F080F191F0E9456
:10492000F60B1F928F9382EE98E09F938F931F93C5
:104930000F930E94092F080F191F0E94491C1F92F4
:104940008F938BED98E09F938F931F930F930E940B
:10495000092F080F191F0E9412279F938F937F938F
:104960006F9385ED98E09F938F931F930F930E9411
:10497000092F080F191FCE0101967C01FC0101903F
:104980000020E9F73197BF01681B790B0FB6F89447
:10499000DEBF0FBECDBF0E9498231F928F9381ED83
:1049A00098E09F938F931F930F930E94092FC70145
:1049B0000E945A230E941227609375057093760512
:1049C00080937705909378050F900F900F900F903C
:1049D0000F900F90C458DF4F0FB6F894DEBF0FBE94
:1049E000CDBFDF91CF911F910F91FF90EF90089570
:1049F0000E94431C1F928F938BEF98E058CFCF9368
:104A0000DF93CDB7DEB764970FB6F894DEBF0FBE65
:104A1000CDBF0E941227698B7A8B8B8B9C8B8091E8
:104A2000710590917205A0917305B0917405298963
:104A30003A894B895C89281B390B4A0B5B0BDA01DD
:104A4000C9010B97A105B10528F08091700581116E
:104A5000109270050E942423811102C080E030C0B2
:104A60000E941227609371057093720580937305FD
:104A7000909374050E941023982F809170058823CD
:104A800099F0833059F7E0916F05AE2FB0E0A75849
:104A9000BA4F9C93EF5FE0936F05EF31D0F0109227
:104AA0006F0510927005DACF9923C1F29A30B1F2F6
:104AB0009093790591E090936F0593E09093700542
:104AC00064960FB6F894DEBF0FBECDBFDF91CF91D5
:104AD0000895E23018F2F0E0E858FA4F80818A3009
:104AE00009F0BCCF1092700580917905813609F0EC
:104AF000B5CF80917A05863709F0B0CF62E979E0C9
:104B00008BE795E00E944B2E892B31F081E00E94CB
:104B1000950A0E94AB237BC06BE879E08BE795E0B8
:104B20000E944B2E892B11F080E0F1CF65E879E0EF
:104B30008BE795E00E944B2E892B61F080E00E946C
:104B40005F0F81E00E94590F81E00E94B50A0E9428
:104B5000360FDFCF6FE779E08BE795E00E944B2EB1
:104B6000892B11F080E0EECF69E779E08BE795E0E3
:104B70000E944B2E892B69F080E00E94590F81E042
:104B80000E945F0F81E00E94B50A80E00E94FC0B4A
:104B9000DECF63E779E08BE795E00E944B2E892B0F
:104BA00039F080E00E945F0F80E00E94FC0BCCCFC8
:104BB0006DE679E08BE795E00E944B2E892B19F08A
:104BC0000E94AD26A6CF67E679E08BE795E00E94CC
:104BD0004B2E892B29F080E395E70E94C62799CFB9
:104BE00062E679E08BE795E00E944B2E892B21F05D
:104BF00080E00E94F4198DCF67E579E08BE795E0BE
:104C00000E944B2E892B29F081E00E94FC1781E045
:104C100057CF6CE479E08BE795E00E944B2E892B0F
:104C200011F080E0F2CF66E479E08BE795E00E9436
:104C30004B2E892B31F08FB7F894109203018FBF60
:104C400068CF60E479E08BE795E00E944B2E892BDA
:104C500031F08FB7F89491E090930301F0CF6CE3BB
:104C600079E08BE795E00E944B2E892B09F451CF18
:104C700080E1E0E8F5E0DE01119601900D928A9561
:104C8000E1F7CE0101960E94971B43CFCF93DF93AC
:104C900000D000D0CDB7DEB70E94AF0A813061F4FA
:104CA00080E00E94A90A80E00F900F900F900F9073
:104CB000DF91CF910C94B50A0E94122769837A8301
:104CC0008B839C838091750590917605A0917705E3
:104CD000B09178054E96A11DB11D29813A814B8175
:104CE0005C81281739074A075B0740F00F900F9047
:104CF0000F900F90DF91CF910C94AB230F900F90FA
:104D00000F900F90DF91CF91089514BC15BC16BC85
:104D100085EA87BD84B5826084BD85B5836085BD25
:104D20000895F89410928000E1E8F0E0108210926B
:104D300085001092840080E792E090938900809330
:104D40008800808188608083808184608083EFE632
:104D5000F0E080818260808308951092A6055D98BE
:104D600008959FB7F894EEE6F0E08081826080833A
:104D70009FBF789408951F921FB61F9211248F939E
:104D80009F938BB190E489278BB980919B058F5FAE
:104D900080939B05853640F05E9810929B0580912C
:104DA0006E008D7F80936E009F918F911F901FBE2C
:104DB0001F9018950E945C0F813071F480919805C6
:104DC0008F5F809398058F3160F085B190E28927DD
:104DD00085B91092980508950E94560F811101C05F
:104DE0002D980895CF93DF9300D000D0CDB7DEB7D4
:104DF0008FB7F8942091AF053091B0054091B1057F
:104E00005091B20529833A834B835C838FBF6981BC
:104E10007A818B819C810F900F900F900F90DF9182
:104E2000CF910895CF93DF9300D000D0CDB7DEB7F8
:104E30008FB7F8942091AB053091AC054091AD054A
:104E40005091AE0529833A834B835C838FBF698180
:104E50007A818B819C810F900F900F900F90DF9142
:104E6000CF910895CF93DF9300D000D0CDB7DEB7B8
:104E70008FB7F8942091A7053091A8054091A90516
:104E80005091AA0529833A834B835C838FBF698144
:104E90007A818B819C810F900F900F900F90DF9102
:104EA000CF9108958FB7F8941092A3051092A205A0
:104EB0008FBF0895CF92DF92EF92FF92CF93DF934F
:104EC00000D000D0CDB7DEB77C010E94F226DC0115
:104ED000CB018E0D9F1DA11DB11D6C017D0188951B
:104EE0000E94F2266C157D058E059F0568F00F90D7
:104EF0000F900F900F90DF91CF91FF90EF90DF9088
:104F0000CF9008950E9478100E9437298111FACF1E
:104F10000E942423882321F30E94FF24F9CFCF92FB
:104F2000DF92EF92FF92CF93DF9300D000D0CDB706
:104F3000DEB7F82E0E941227DC01CB018F0D911DE8
:104F4000A11DB11D6C017D0188950E9412276C1571
:104F50007D058E059F0568F00F900F900F900F90C4
:104F6000DF91CF91FF90EF90DF90CF9008950E9456
:104F700078100E9437298111FACF0E9424238823B8
:104F800021F30E94FF24F9CF5D9A0895F89421E05F
:104F90002093A6058093A4059093A50580E00E9428
:104FA000C427789408955D9808951F920F920FB6C4
:104FB0000F9211242F933F934F935F936F937F939F
:104FC0008F939F93AF93BF93EF93FF930E94DA2643
:104FD0000E941B1C0E948D1C0E94CE1C0E946A1CF9
:104FE0008091A605882361F08091A4059091A50584
:104FF0008A30910588F10A979093A5058093A405BE
:105000008091AF059091B005A091B105B091B20526
:105010000A96A11DB11D8093AF059093B005A09392
:10502000B105B093B20580919A058F5F8436E8F49C
:1050300080939A05A895FF91EF91BF91AF919F91B1
:105040008F917F916F915F914F913F912F910F9031
:105050000FBE0F901F9018951092A5051092A405F1
:105060001092A6050E94D327CBCF10929A0580916B
:10507000AB059091AC05A091AD05B091AE05019640
:10508000A11DB11D8093AB059093AC05A093AD0518
:10509000B093AE0580910401909105018F3F980770
:1050A00029F0019690930501809304018091A20557
:1050B0009091A30501969093A3058093A20520915A
:1050C00099052F5F2C33B8F52093990589359240C7
:1050D00078F08091A0059091A1058F3F980729F065
:1050E00001969093A1058093A00581E00E94FC1792
:1050F00080919C0590919D05A0919E05B0919F0582
:105100000196A11DB11D80939C0590939D05A093D0
:105110009E05B0939F050E94560F813039F0809113
:10512000040190910501019609F484CF85B190E2C4
:10513000892785B97FCF109299054091A705509195
:10514000A8056091A9057091AA054F5F5F4F6F4F49
:105150007F4F4093A7055093A8056093A9057093CE
:10516000AA05B4CF2FB7F89490E0B0E0A0E0809308
:105170009C0590939D05A0939E05B0939F052FBF1E
:105180000895CF93DF93CDB7DEB728970FB6F89485
:10519000DEBF0FBECDBF8FB7F89440919C055091F4
:1051A0009D0560919E0570919F0549835A836B838D
:1051B0007C838FBF89819A81AB81BC81BC01CD0189
:1051C00028960FB6F894DEBF0FBECDBFDF91CF910A
:1051D00008952FB7F89480930401909305012FBF91
:1051E00008952FB7F89480910401909105012FBF85
:1051F00008959FB7F8948091A6059FBF08951092D7
:10520000C50087E68093C40086E08093C20088E9E9
:105210008093C1001092B3051092B40508958F9346
:105220008FB78F939F93EF93FF938091C0009091DE
:10523000C600887151F48091B405E82FF0E0EB547A
:10524000FA4F90838F5F8093B405FF91EF919F9108
:105250008F918FBF8F9118958091B305E82FF0E063
:10526000EB54FA4F8F5F8093B3058081089581E0FE
:105270002091B4059091B305291301C080E00895F1
:10528000615008F408952091C00025FFFCCFFC0177
:1052900081918093C600CF01F3CFFC0181918111F0
:1052A00001C008959091C00095FFFCCF8093C60087
:1052B000F5CF9091C00095FFFCCF8093C600089574
:1052C000CF93DF93EC01FE0184912196811103C0FD
:1052D000DF91CF9108950E945929F5CF1092B4051E
:1052E0001092B3050895CF92DF92EF92FF92CF9381
:1052F000DF9300D000D00F92CDB7DEB70E94122707
:105300006A837B838C839D836B017C0183E0C80E61
:10531000D11CE11CF11C8091C00087FD0CC00F90D6
:105320000F900F900F900F90DF91CF91FF90EF9023
:10533000DF90CF9008950E9412276A837B838C832D
:105340009D83C616D706E806F90648F38091C60085
:10535000898389818983DFCFA89589E28093600062
:105360000E94C81C882339F080E00E94A80F0E9488
:10537000360FF894FFCF0E944F1C0E9485260E9492
:1053800091260E94ED220E94FF286CE080E80E9496
:10539000EC040E940923789480E194E00E94692340
:1053A00081E00E94E70E0E944B17882339F081E0CC
:1053B0000E94F41985E094E00E9469230E949315ED
:1053C0000E94E70C0E9452270E94DA058CEF93E0BE
:1053D0000E9469230E94B12688EC90E00E945A271F
:1053E0000E94B12688EC90E00E945A270E94B126C4
:1053F00088EC90E00E945A270E9452270E94C6160D
:105400000E9424070E941E180E944C1B0E94DA056D
:105410000E94C5090E94B5150E94530A0E944626A3
:105420000E947A230E943729811106C00E942423FA
:10543000811105C08895E0CF0E947810F3CF0E94BB
:10544000FF24F4CFAA1BBB1B51E107C0AA1FBB1F3F
:10545000A617B70710F0A61BB70B881F991F5A9500
:10546000A9F780959095BC01CD010895A1E21A2E6F
:10547000AA1BBB1BFD010DC0AA1FBB1FEE1FFF1FF8
:10548000A217B307E407F50720F0A21BB30BE40B48
:10549000F50B661F771F881F991F1A9469F760958F
:1054A0007095809590959B01AC01BD01CF01089549
:1054B000EE0FFF1F0590F491E02D0994A29FB0011B
:1054C000B39FC001A39F700D811D1124911DB29F38
:1054D000700D811D1124911D08950E94742A6894F5
:1054E000B1110C94032B08950E94E82A88F09F576D
:1054F00098F0B92F9927B751B0F0E1F0660F771FF8
:10550000881F991F1AF0BA95C9F714C0B13091F0ED
:105510000E94022BB1E008950C94022B672F782F84
:105520008827B85F39F0B93FCCF3869577956795B2
:10553000B395D9F73EF490958095709561957F4F1E
:105540008F4F9F4F0895E89409C097FB3EF49095C4
:105550008095709561957F4F8F4F9F4F9923A9F04C
:10556000F92F96E9BB279395F695879577956795DB
:10557000B795F111F8CFFAF4BB0F11F460FF1BC01F
:105580006F5F7F4F8F4F9F4F16C0882311F096E9B2
:1055900011C0772321F09EE8872F762F05C0662360
:1055A00071F096E8862F70E060E02AF09A95660F19
:1055B000771F881FDAF7880F9695879597F90895D2
:1055C00057FD9058440F551F59F05F3F71F04795B4
:1055D000880F97FB991F61F09F3F79F08795089599
:1055E000121613061406551FF2CF4695F1DF08C0B8
:1055F000161617061806991FF1CF869571056105D5
:1056000008940895E894BB2766277727CB0197F97C
:1056100008950E941C2B0C948D2B0E947F2B38F038
:105620000E94862B20F0952311F00C94762B0C947D
:105630007C2B11240C94032B0E94E02A70F3959F7D
:10564000C1F3950F50E0551F629FF001729FBB2779
:10565000F00DB11D639FAA27F00DB11DAA1F649F15
:105660006627B00DA11D661F829F2227B00DA11DC8
:10567000621F739FB00DA11D621F839FA00D611D4E
:10568000221F749F3327A00D611D231F849F600D6F
:10569000211D822F762F6A2F11249F5750409AF098
:1056A000F1F088234AF0EE0FFF1FBB1F661F771F24
:1056B000881F91505040A9F79E3F510580F00C94EF
:1056C000762B0C94032B5F3FE4F3983ED4F386953E
:1056D00077956795B795F795E7959F5FC1F7FE2B8F
:1056E000880F911D9695879597F9089597F99F676B
:1056F00080E870E060E008959FEF80EC089500245A
:105700000A941616170618060906089500240A9426
:1057100012161306140605060895092E0394000CAC
:1057200011F4882352F0BB0F40F4BF2B11F460FF3B
:1057300004C06F5F7F4F8F4F9F4F08950F931F934C
:10574000CF93DF939C01029710F422E030E0E091C8
:10575000B506F091B60690E080E0B0E0A0E03097AA
:1057600091F4009709F445C0821B930B8430910596
:10577000B8F58A819B816115710569F1FB019383FD
:105780008283FE0111C04081518102811381421741
:105790005307F0F04217530799F4109761F01296EF
:1057A0000C93129713961C933296CF01DF91CF91F1
:1057B0001F910F9108950093B5061093B606F4CF8C
:1057C000009719F04817590718F4CA01BD01EF01F5
:1057D000DF01F801C4CF9093B6068093B506D1CF10
:1057E000FE01E80FF91F2193319302979983888373
:1057F000DCCF8091B7069091B806892B41F4809157
:105800000801909109019093B8068093B7068091A2
:10581000060190910701009741F48DB79EB7409122
:105820000A0150910B01841B950B4091B7065091D2
:10583000B8064817590708F0B8CF841B950B821794
:10584000930708F4B2CFB9016E5F7F4F86179707B1
:1058500008F4ABCF640F751F7093B8066093B7065A
:10586000FA0121933193A1CFCF93DF939C0100974D
:10587000E9F0FC01329713821282C091B506D091F3
:10588000B606DE0190E080E02097A1F4808191814E
:10589000280F391F8091B7069091B8068217930799
:1058A00009F067C0F093B806E093B706DF91CF9197
:1058B0000895DA01AE17BF0708F041C012964D9166
:1058C0005C911397CD014115510599F7DC011396B1
:1058D000FC93EE9312974D915D91A40FB51FEA17BB
:1058E000FB0781F4208131812E5F3F4F240F351F4C
:1058F000DC0111963C932E932281338113963C93C5
:105900002E931297B0E0A0E08A819B810097B1F5B9
:10591000FE0181919191E80FF91F8091B706909156
:10592000B8068E179F0711F6109759F51092B60614
:105930001092B506D093B806C093B706B7CFB3831D
:10594000A28340815181240F351FA217B30771F440
:105950004E5F5F4F2D913C911197240F351F31837E
:10596000208312962D913C9133832283009709F076
:10597000ADCFF093B606E093B50698CFDE01EC010B
:10598000C3CF13961C921E921297D4CFA6E0B0E01C
:10599000ECECFCE20C9426328D839E836B017A0141
:1059A0006115710529F0ED81FE81DB01ED93FC931A
:1059B000E114F10429F0C7010297839708F0A6C00B
:1059C000AD80BE8095012F5F3F4F3E832D83D50173
:1059D0001C91812F90E00E942C2E892B89F71D327B
:1059E000B1F4ED81FE81108195012E5F3F4F3E8322
:1059F0002D8301E0E114F10409F401C1F0E1EF1697
:105A0000F10409F004C1103369F0E02F1DC01B320E
:105A100039F4AD81BE811C91F5013296FE83ED8390
:105A200000E0E8CFAD81BE818C918F7D883509F093
:105A300072C011961C9111971296BE83AD83E02F10
:105A4000E26050E1E52EF12C88248A94982CA82C51
:105A50008FE0B82E81C0E02F10E329E9822E982C28
:105A6000A82C29E1B22E78C0E02F10E3EDCFE02F73
:105A700088248A94982CA82C3FE1B32E6DC0E02F87
:105A800010E348E0E42EF12CF3CF8FEFB2C0C11445
:105A9000D10449F0882379F12D813E8121503109CB
:105AA000F60131832083002379F029813A814B81EB
:105AB0005C8150954095309521953F4F4F4F5F4FFA
:105AC00029833A834B835C838F3F69F482E290E0C1
:105AD0009093BC068093BB068FEF9FEFDC01898318
